:100F04003F065B4F666D7D077F6F40BF86DBCFE694
:050F1400EDFD87FFEF79
:100F1900010F0001120102100078020D01400108C1
:010F290000C7
:080E9600D292D2947F0A7E0083
:100E9E00E4FDFCC3ED9FEC9E5015E4FBFA0BBB008A
:0F0EAE00010AEB64704A70F50DBD00010C80E481
:010EBD002212
:0A0EBE00E4FE33FF120EC8120EC846
:100EC80000000000000000000000000000000022F8
:100ED800C2907FF0DFFED2907F1EDFFEA290B3406B
:050EE800FB7F04DFFEAA
:010EED0022E2
:100DF700E4FE7D01EDA806088002C333D8FCFDEFB1
:100E07005205EDD39400400CC290120EC8D2901236
:100E17000EC2800AC290120EC2120EC8D290120ED3
:050E2700C80EBE08CD5D
:010E2C0022A3
:100CF900E4FBFA120ED87FCC120DF77F44120DF7E0
:100D0900120ED87FCC120DF77FBE120DF7E4FDC28B
:100D1900900000D290120EC8A290120EBEA805082B
:100D29008005C333CE33CED8F9FF4203EE42020D1C
:100D3900BD10DCAD03AC02EC12090BE4FBFA79201F
:080D4900783F12080012094472
:010D5100227F
:100EEE00C2A17FF0DFFED2A17F1EDFFEA2A1B34022
:050EFE00FB7F04DFFE94
:010F030022CB
:100E2D00E4FE7D01EDA806088002C333D8FCFDEF7A
:100E3D005205EDD39400400CC2A1120EC8D2A112DE
:100E4D000EC2800AC2A1120EC2120EC8D2A1120E7B
:050E5D00C80EBE08CD27
:010E6200226D
:100D5200E4FBFA120EEE7FCC120E2D7F44120E2D02
:100D6200120EEE7FCC120E2D7FBE120E2DE4FDC2AE
:100D7200A10000D2A1120EC8A2A1120EBEA805089F
:100D82008005C333CE33CED8F9FF4203EE42020DC3
:100D9200BD10DCAD03AC02EC12090BE4FBFA7920C6
:080DA200783F12080012094419
:010DAA002226
:100F2B00758901758CF8758A30D2A9D2AFD28C2213
:100B7300AB07AA06C3EA648094805010900F0EE47A
:100B830093F509C3E49BFBE49AFA80197C037DE89F
:100B9300AF03AE021209C574042FF582740F3EF53C
:100BA30083E493F5097C037DE8AF03AE021209C524
:100BB3007E007F64CFCDCFCECCCE1209C574042F77
:100BC300F582740F3EF583E493F50A7C007D64AFF0
:100BD30003AE021209C57E007F0ACFCDCFCECCCEA5
:100BE3001209C5740F2FF582740F3EF583E493F554
:100BF3000BAE02AF037C007D0A1209C574042DF508
:0B0C030082740F3CF583E493F50C2293
:100E6300C3EF9511E5106480F8EE6480985007C2D3
:100E730092D294C2A322D3EF950EE50D6480F8EECF
:100E83006480984007D292C294C2A322D292D29491
:030E9300D2A322C5
:100A5E00E4F51620B20E7F0AFE120E9E20B205306D
:100A6E00B2FD0508E5087005F50F020AFCE508B4AD
:100A7E000106750F01020AFCE50864027070C2924D
:100A8E00D294D2A3AF11AE10120B73120E9A30B2D3
:100A9E00FD120E9A20B323D3E51194DAE51064808B
:100AAE00947D4016E511151170021510AF11AE10A0
:100ABE00120B737FC87E00120E9E20B422C3E51166
:100ACE0094E2E5106480948450150511E5117002CE
:100ADE000510FFAE10120B737FC87E00120E9E2003
:100AEE00B2B2750803120E9630B2FD120E9AE508D8
:100AFE0064037070D292C294AF0EAE0D120B7312CD
:100B0E000E9A30B2FD120E9A20B323D3E50E94DA6C
:100B1E00E50D6480947D4016E50E150E7002150DE0
:100B2E00AF0EAE0D120B737FC87E00120E9E20B458
:100B3E0022C3E50E94E2E50D648094845015050EF3
:100B4E00E50E7002050DFFAE0D120B737FC87E0011
:100B5E00120E9E20B2B2E4F508F50F120E9630B2C8
:040B6E00FD120E9ACC
:010B72002260
:100C9A00120F2B900F04E493F509F50AF50BF50CE6
:100CAA00E4F515120CF9120D527F787E00120E9E91
:100CBA000515E515C3940840EAC2AFE50F700512A1
:100CCA000CF98003120D528E138F14D2AFAF14AEEB
:100CDA0013120B73AF14AE13120E63E4F515E51578
:0F0CEA00C3946450D4120A5E120E9A051580EF5F
:03000B00020DAB38
:100DAB00C0E0C0D0758CF8758A30758000D2A4D2A3
:100DBB00A5D2A6D2A7E512B40105C2A4850980E588
:100DCB0012B40205C2A5850A80E512B40305C2A6BA
:100DDB00850B80E512B40405C2A7850C800512E5CE
:0C0DEB0012B40503751201D0D0D0E03224
:10080000EC4D6011E8497017ED33EC3304600DE4F2
:10081000FCFFFEFD22E933E8330470F80209B01250
:10082000097B58046009E4CC248150062850090251
:1008300009BA2840030209B7C0E0EB4A7044B98006
:1008400006D0E0FB0209A6EF4E701CBD8008EBFF4E
:10085000EAFEE9FD80EBE98DF0A4FEE5F00208E98F
:10086000E9CDF9EAFEEBFFEF89F0A4FCE5F0CE89D3
:10087000F0A42EFFE435F0CD89F0A42DFEE435F090
:100880008067EF4E7005BD80D780C3EF8BF0A4ACBE
:10089000F0EE8BF0A42CFCE435F0F8EF8AF0A42CF9
:1008A000E5F038FCE433CB8DF0A42CFCE5F03BF80C
:1008B000EE8AF0A42CFCE5F038F8E433CF89F0A4FC
:1008C0002CFCE5F038CF3400CE89F0A42FFFE5F002
:1008D0003EFEE433C98DF0A42EFEE5F039CD8AF05A
:1008E000A42FFFE5F03EFEE43DFD33D0E0FB5007D2
:1008F0000BBB000F0209BAEC2CFCEF33FFEE33FE0A
:06090000ED33FD02099237
:1009060075F020800E75F010800575F0087D007E6C
:10091600007F003392D530D5031209FBEC3340102B
:10092600EF33FFEE33FEED33FDEC33FCD5F0ED2275
:0E093600E5F0247EA2D513CC92E7CDCEFF22B1
:10094400EDD2E7CD33EC3392D524814006E4FFFEAB
:10095400FDFC22FCE4CFCECDCC24E0501174FF800A
:10096400EDC3CC13CCCD13CDCE13CECF13CF0470A7
:07097400F030D5DE0209FBA3
:10097B00E9D2E7C933E833F892D5EDD2E7CD33ECC2
:07098B0033FC5002B2D5223B
:10099200EC30E7100FBF000C0EBE00080DBD0004C6
:1009A2000BEB6014A2D5EB13FCED92E7FD2274FF72
:1009B200FCFDFEFF22E480F8A2D574FF13FC7D80CB
:0309C200E480EFDF
:03000000020C0EE1
:0C0C0E00787FE4F6D8FD758116020C55C5
:1009C500C2D5EC30E709B2D5E4C39DFDE49CFCEE4D
:1009D50030E715B2D5E4C39FFFE49EFE120A09C3B2
:1009E500E49DFDE49CFC8003120A0930D507C3E4AD
:0609F5009FFFE49EFE22BC
:0E09FB00C3E49FFFE49EFEE49DFDE49CFC220D
:100C1A00020C9AE493A3F8E493A34003F68001F24A
:100C2A0008DFF48029E493A3F85407240CC8C333DB
:100C3A00C4540F4420C8834004F456800146F6DFAA
:100C4A00E4800B0102040810204080900F19E47E12
:100C5A00019360BCA3FF543F30E509541FFEE4939F
:100C6A00A360010ECF54C025E060A840B8E493A366
:100C7A00FAE493A3F8E493A3C8C582C8CAC583CA91
:100C8A00F0A3C8C582C8CAC583CADFE9DEE780BE49
:010F2A0000C6
:100A0900BC000BBE0029EF8DF084FFADF022E4CCD1
:100A1900F875F008EF2FFFEE33FEEC33FCEE9DEC9A
:100A2900984005FCEE9DFE0FD5F0E9E4CEFD22EDE0
:100A3900F8F5F0EE8420D21CFEADF075F008EF2F2A
:100A4900FFED33FD4007985006D5F0F222C398FD1B
:050A59000FD5F0EA22B8
:00000001FF
