:020000040800F2
:100000007844002099010008832000080D1500089D
:1000100081200008AF020008DD2E0008000000006B
:1000200000000000000000000000000001010008C6
:10003000310300080000000045010008AD2C000855
:10004000B3010008B3010008B3010008B3010008C0
:10005000B3010008B3010008B3010008B3010008B0
:10006000B3010008B3010008B3010008B3010008A0
:10007000B3010008B3010008B3010008B301000890
:10008000B3010008B3010008B3010008B301000880
:10009000B3010008B3010008B3010008B301000870
:1000A000B3010008B3010008B3010008B301000860
:1000B000B3010008B3010008B3010008B301000850
:1000C000B3010008B3010008B3010008B301000840
:1000D000B3010008B3010008B3010008B301000830
:1000E000B3010008B3010008B3010008DFF80CD029
:1000F00000F0B6F800480047753200087844002048
:10010000224B19680868B0E8F00F80F30988BFF344
:100110006F8F4FF0000080F311884EF00D0E704786
:100120000000000006480068006880F3088862B696
:1001300061B6BFF34F8FBFF36F8F00DF00BF00BF0B
:1001400008ED00E0EFF30980BFF36F8F0F4B1A68E3
:1001500020E9F00F106008B54FF0500080F31188CF
:10016000BFF34F8FBFF36F8F04F09EF94FF0000085
:1001700080F31188BDE8084019680868B0E8F00FFE
:1001800080F30988BFF36F8F704700BFD000002055
:10019000EFF3058070470000064880470648004797
:1001A000FEE7FEE7FEE7FEE7FEE7FEE7FEE7FEE727
:1001B000FEE7FEE7252D0008ED00000840EA0103F8
:1001C0009B0703D009E008C9121F08C0042AFAD20D
:1001D00003E011F8013B00F8013B521EF9D27047D1
:1001E000D2B201E000F8012B491EFBD27047002279
:1001F000F6E710B513460A4604461946FFF7F0FF26
:10020000204610BD10B5002200E0521C835C8C5CBF
:10021000A34201D1002BF8D1D8B2E1B2401A10BDEF
:10022000034611F8012B00F8012B002AF9D11846DA
:10023000704730B50B46014600202022012409E01A
:1002400021FA02F59D4205D303FA02F5491B04FA8F
:1002500002F52844151EA2F10102F1DC30BD0000B8
:10026000064C074D06E0E06840F0010394E8070003
:1002700098471034AC42F6D3FFF73CFF105D0008FE
:10028000305D000810B5C0070AD0142002F036FB1C
:1002900080070BD10321BDE81040142002F0C2BB3F
:1002A0000321BDE81040142000F036B810BDFEE771
:1002B00070472DE9F0410E460746154604210520FA
:1002C00000F02AF80021012002F00AFE80210A2015
:1002D00002F0A8FB002405E0395D092002F000FED1
:1002E000641CE4B2B442F7D30321012002F0F8FD0C
:1002F000FF24052002F002FB641E14F0FF0401D06D
:100300004007F6D5222002F0F9FA2870212002F0E9
:10031000F5FA6870BDE8F08170B50C46054602F04C
:10032000EDFA20EA04012846BDE8704002F0D8BD8D
:100330007047000070B53B4D0024C0B301228021FE
:10034000284600F0EFF900227021284600F0EAF973
:100350000A2003F02DF801224021284600F0E2F99E
:100360000022B021284600F0DDF90A2003F020F831
:1003700001222021284600F0D5F90022D02128466C
:1003800000F0D0F90A2003F013F8012210212846CA
:1003900000F0C8F90022E021284600F0C3F90A2045
:1003A00003F006F8641CE4B2642CC7D370BDFFE709
:1003B00001221021284600F0B5F90022E02128464C
:1003C00000F0B0F90A2002F0F3FF012220212846B4
:1003D00000F0A8F90022D021284600F0A3F90A2055
:1003E00002F0E6FF01224021284600F09BF900229E
:1003F000B021284600F096F90A2002F0D9FF012228
:100400008021284600F08EF900227021284600F055
:1004100089F90A2002F0CCFF641CE4B2642CC7D333
:10042000C4E70000000C01402DE9F0410024069FC4
:100430002146002001F05CFFC4EB04100025C0EB56
:10044000C4167019385C01F079FF6D1CEDB2802D77
:10045000F7D3641CE4B2082CEAD3BDE8F0810000B5
:1004600070B5044600F064F90546601C02D00448EB
:100470000078044400F05CF9401BA042FAD370BD40
:100480009C0000202DE9F04300230F24DFF8C0C0BA
:1004900059E001229A400A4054D0FF2A01D8074669
:1004A00001E000F104074FEA830601D9A6F1200616
:1004B000D7F8008004FA06F54FF0040928EA050889
:1004C00009FA06F948EA0908C7F80080C56825EA6C
:1004D0000205C56023F003056544AF684FEA8376E3
:1004E0004FEA167604FA06F909EA0708194FB842E6
:1004F00001D100270FE0184FB84201D101270AE0CF
:10050000164FB84201D1022705E0154FB84201D17C
:10051000032700E00427B740474513D1AF6827EA17
:100520000907AF600F4D2E6896432E602D1D2E6873
:1005300096432E602D1D2E6896432E602D1D2E682D
:1005400096432E605B1C31FA03F2A2D1BDE8F08322
:100550000000014000080140000C01400010014073
:1005600000140140000401402DE9F84FDFF890A18C
:1005700000220AF1040B144601274FF00F090BF17A
:10058000040E00BF0B6807FA04F52B40AB4274D190
:10059000DFF870C14E68A6EB0C0866452BD00DDC69
:1005A000032E34D005DC36B3012E19D0022E2FD104
:1005B0001BE0112E16D0122E2AD119E0B8F5881F93
:1005C00019D006DCB8F5803F15D0B8F5801F1FD1D3
:1005D00011E0B8F5001F0ED0B8F5041F18D10AE0DD
:1005E000CA6815E0CA68121D12E0CA6808320FE036
:1005F000CA680C320CE08A682AB1012A4FF008025E
:1006000003D0456104E0042202E0056100E000221D
:10061000FF2B01D8064601E000F104064FEA8405ED
:1006200001D9A5F12005D6F800C009FA05F82CEA91
:10063000080C02FA05F54CEA050CC6F800C04D6836
:10064000ED0057D5304DAE6946F00106AE61AD699B
:1006500024F0030605F0010500952C4D06EB050C72
:10066000DCF80850A6074FEA167809FA08F6B543F1
:10067000274EB04202D1002610E03BE0254EB042AA
:1006800001D101260AE0244EB04201D1022605E044
:10069000224EB04201D1032600E0042606FA08F6F5
:1006A0002E43CCF808604D68DAF80060ED0355463B
:1006B00001D51E4300E09E432E604D68DBF80060CC
:1006C000AD035D4601D51E4300E09E432E604D689C
:1006D000DEF80060ED02754601D51E4300E09E4342
:1006E0002E604D68AD020E4D2E6801D51E4300E010
:1006F0009E432E60641C102CFFF444AFBDE8F88FBD
:1007000000040140000011100010024000000140F0
:1007100000080140000C014000100140001401409D
:100720000C0401400AB1016170470904FBE70000B5
:1007300001488068704700009C00002010B504004C
:1007400013D0242084F83D002068016821F00101C5
:100750000160204600F04AF90020206484F83D0042
:1007600044F8300FA073207310BD012010BD0000AD
:1007700070B504001BD094F83D00002520B984F822
:100780003C50204600F054F9242084F83D002068B5
:10079000016821F00101016000F006FB404A616838
:1007A000914201D83F4900E03F49884201D20120EF
:1007B00070BD3E492368B0FBF1F159606368934214
:1007C00006D94FF4967359434FF47A73B1FBF3F1A2
:1007D0002368491C19626168914210D84900401E83
:1007E000B0FBF1F2521CC2F30B02042A01D2042026
:1007F00022E0B0FBF1F0401CC0F30B001CE0A3684A
:10080000CBB301EBC10202EB0116421EB2FBF6F2C2
:10081000521C42F48042120536D06BB301EBC10288
:1008200002EB0111401EB0FBF1F0401CC0F30B00C5
:1008300040F4804040F400402168C861D4E90701D9
:10084000084321680860D4E90310084321688860E0
:10085000D4E9050108432168C8602068016841F0B7
:10086000010101602564202084F83D00256384F89F
:100870003E50002070BD00E008E001EB4106421E42
:10088000B2FBF6F2521CC6E70120D5E701EB4101AD
:10089000401EB0FBF1F0401CC0F30B00CAE70000A3
:1008A000A086010080841E0000093D0040420F0028
:1008B0002DE9FF4F83B09A46DDE911879346044640
:1008C000DDF84090FFF734FF064694F83D002028FD
:1008D0007DD11923012243492046009600F0A3FE52
:1008E00000287CD194F83C00012878D0012084F8BD
:1008F0003C0020680168C90703D1016841F001018B
:1009000001602068016821F400610160212084F801
:100910003D00402084F83E0000252564C4F8249062
:10092000A4F82A803048E062608D2085CDE9007609
:1009300053465A462046049900F0FEFD80B3206CD1
:1009400084F83C50042848D008E032463946204616
:1009500000F0DEFE30B1206C042839D0032007B04F
:10096000BDE8F08F606A411C61622168007808610F
:10097000208D401E80B22085618D491E61852168D1
:100980004A69D24352070BD468B1606A421C626262
:1009900000780861208D401E2085608D401E608596
:1009A000208D0028D1D132463946204600F014FE71
:1009B0000028D0D154F83D0B016841F4007101606A
:1009C000202004F81E09E57765770020C7E706E0D8
:1009D0002068016841F4007101600120BFE7022036
:1009E000BDE70000020010000000FFFF0C4B026892
:1009F0000C490D489A4206D1CA6922F40012CA6114
:100A00004FF4407108E0094B9A4207D1CA6922F4B9
:100A10008002CA614FF44061FFF734BD70470000A7
:100A20000054004000100240000C014000580040FB
:100A30002DE9F0430068244912270325DFF88C9044
:100A4000234C85B0884216D12802CDE900076946BB
:100A500003954846FFF788FD1E48416841F0E06174
:100A600041F002014160E06940F40010E061E0699A
:100A700000F4001024E0184EB04222D101204FF4BF
:100A80004068CDE90080CDE9020569461348FFF7CB
:100A90006BFD012241464846FFF744FEF0133060EB
:100AA00000203060CDE90087694648460395FFF78E
:100AB0005BFDE06940F48000E061E06900F48000E3
:100AC000049005B0BDE8F08300540040000C0140E4
:100AD000001002400000014000580040001001409A
:100AE0000248816802781144816070479C000020B0
:100AF000074810B5016841F010010160032000F0C3
:100B000091F80F2000F006F800F024F8002010BD46
:100B10000020024070B50D4D04464FF47A712878DC
:100B2000B1FBF0F00A490968B1FBF0F000F07CFC81
:100B300048B9102C07D200222146501E00F052F86E
:100B400000206C6070BD012070BD00009C00002082
:100B5000A8000020214808B5816941F001018161A8
:100B6000816901F001010091C16941F08051C161C9
:100B7000C06900F080500090032000F053F800227C
:100B800011466FF00B0000F02DF8002211466FF0B7
:100B90000A0000F027F8002211466FF0090000F06B
:100BA00021F800221146501F00F01CF800221146C7
:100BB000101F00F017F800220F21901E00F012F80D
:100BC00000220F21501E00F00DF80548416821F069
:100BD000E06141F00071416008BD0000001002407A
:100BE00000000140F0B40E4B1B680C46C3F3022317
:100BF000C3F10705042D00D90425191D072901D2C9
:100C0000002300E0DB1E012606FA05F1491E214003
:100C100099409E40761E16403143F0BC01F032BA36
:100C20000CED00E0064900F0070208684FF6FF03EC
:100C3000184040EA0220034A104308607047000051
:100C40000CED00E00000FA052DE9F047DFF83C81EB
:100C500005460E46D8F8000000F00700B0420CD25E
:100C6000D8F8001021F007013143C8F80010D8F877
:100C7000000000F00700B04263D12878444C8007A0
:100C800005D56068A96820F0F00008436060287806
:100C9000C00745D06868012816D02168022816D000
:100CA000890700294DDA616821F003010143616081
:100CB000FFF73EFD6968074641F2883001290FD0F1
:100CC0000229814619D027E021688903E9E78901D3
:100CD000E7E700BFFFF72CFDC11B494501D918E02C
:100CE00081466068C0F381000128F3D118E000BF9D
:100CF000FFF71EFDC11B49450BD86068C0F381009A
:100D00000228F5D10CE000BFFFF712FDC11B4945D9
:100D100002D90320BDE8F087606810F00C0FF3D112
:100D2000D8F80010404601F00701B1420BD9016824
:100D300021F0070131430160006800F00700B04274
:100D400001D00120E6E72878400705D56068E9680A
:100D500020F4E060084360602878000706D56068EA
:100D6000296920F4605040EAC100606000F03CF85E
:100D70006168084AC1F30311515CC8400649086024
:100D80000F20FFF7C7FE0020C4E70000002002404C
:100D900000100240B85C0008A8000020014800686C
:100DA00070470000A8000020044805490068496811
:100DB000044AC1F30221515CC8407047A8000020DA
:100DC00000100240C85C00080448054900684968F2
:100DD000044AC1F3C221515CC8407047A8000020FA
:100DE00000100240C85C000812A185B00FC98DE850
:100DF0000F0014A0144A006804905168134801F0D1
:100E00000C03042B10D0082B0ED1C1F38343C9036C
:100E10001DF803000AD5516804AAC1F34041515C92
:100E20000A4A5043B0FBF1F005B070470849484307
:100E3000FAE7000002030405060708090A0B0C0D77
:100E40000E0F1010010200000010024000127A0084
:100E500000093D002DE9F84F04460078B94DC00760
:100E600048D06868C0F38100012807D06868C0F3E3
:100E70008100022809D16868C00306D5286880036C
:100E800038D5606800286FD034E06068B0F5803FE6
:100E90000BD010B1B0F5A02F11D0286820F480300D
:100EA0002860286820F4802002E0286840F4803020
:100EB0002860606888B1FFF73BFC064609E02868B7
:100EC00040F480202860F0E7FFF732FC801B6428A4
:100ED00075D828688003F7D50CE0FFF729FC064693
:100EE00005E000BFFFF724FC801B6428F0D82868C9
:100EF0008003F7D42078944E80074FF001094FF01B
:100F000000083BD5686810F00C0F07D06868C0F384
:100F10008100022809D16868C00306D428688007C8
:100F200014D5206901281FD110E02069B0B1C6F89E
:100F30000090FFF7FDFB074605E000BFFFF7F8FB59
:100F4000C01B0228C4D828688007F7D528686169C3
:100F500020F0F80040EAC10028600FE0C6F80080E9
:100F6000FFF7E6FB074606E0E9E000BFFFF7E0FB1E
:100F7000C01B022823D828688007F7D420780007F0
:100F80002CD57248A169D9B1C0F80090FFF7D0FB09
:100F9000074604E0FFF7CCFBC01B02280FD8686AA5
:100FA0008007F7D56A484FF4FA510068B0FBF1F0BA
:100FB000009000BF0098411E0091FAD20EE080E040
:100FC000C0F80080FFF7B4FB074604E0FFF7B0FB72
:100FD000C01B022875D8686A8007F7D420784007BC
:100FE00060D5E8690027C00008D4E86940F0805067
:100FF000E861E869012700F08050009055480168D9
:10100000C90513D40168834641F480710160FFF77C
:101010008FFB824606E000BFFFF78AFBA0EB0A00C9
:1010200064284ED8DBF80000C005F5D5E06801283B
:101030000AD008B1052813D0286A20F001002862E0
:10104000286A20F0040002E0286A40F001002862CB
:10105000E06841F2883B98B1FFF76AFB82460BE0FB
:10106000286A40F004002862EEE700BFFFF760FB4B
:10107000A0EB0A0159455AD8286A8007F6D50CE03A
:10108000FFF756FB824605E0FFF752FBA0EB0A0193
:1010900059454CD8286A8007F6D41FB1E86920F07A
:1010A0008050E861E06988B36968C1F38101022971
:1010B00045D00228C6F8608004D0FFF739FB04460B
:1010C00038E034E0FFF734FB074604E0FFF730FB7D
:1010D000C01B02282BD828688001F7D4206AB0F5FD
:1010E000803F05D16868A16820F40030084368603B
:1010F000D4E908010843696821F474110843686061
:10110000C6F86090FFF714FB044606E015E000BF48
:10111000FFF70EFB001B022809D828688001F7D5CD
:101120000BE000BFFFF704FB001B022802D90320DD
:10113000BDE8F88F28688001F4D40020F8E701208A
:10114000F6E70000001002400000424280044242E4
:10115000A80000200070004070B5040005D00025F4
:10116000A56294F8510010B104E0012070BD204642
:1011700000F034F8022084F851002068016821F062
:1011800040010160D4E901010843D4E9031211438D
:10119000084361690843218B01F400710843E16948
:1011A0000843216A0843A16A084321680860A069CE
:1011B000042101EA1040616A0843216848602168FF
:1011C000E06A08612068C16921F40061C161656558
:1011D000012084F85100002070BD000010B50068A7
:1011E000124986B088421ED11148C16941F480413C
:1011F000C161C0690F4C00F4804004904FF420405E
:101200000090022001900320039069462046FFF7DA
:10121000ABF900214FF48040CDE90001029169460D
:101220002046FFF7A1F906B010BD000000380040CD
:1012300000100240000C01402DE9F84F044690F8E0
:10124000500000260A9F9A4693460D464FF001082B
:1012500001280ED0012084F85000FFF769FA81467A
:1012600094F85100616801280CD0B1F5827F07D154
:1012700002E00220BDE8F88FA16809B9042801D076
:101280000226BDE055B1BBF1000F07D0BAF1000F47
:1012900004D094F85100012802D004E00126AFE008
:1012A000052084F8510000206065C4F838B0A4F827
:1012B0003EA0A4F83CA02563A4F836A0A4F834A06E
:1012C0002064606420680168490603D4016841F025
:1012D00040010160E068B0F5006F606804D0E8B3D9
:1012E000E08E01283BD06AE010B1E08E01282ED1BB
:1012F000216835F8020BC860E08E401EE08626E0CB
:10130000B8F1000F0DD0E08E58B1206881688907D0
:1013100007D535F8021BC160E08E401EE0864FF015
:101320000008E08F58B120688168C90707D0C068FD
:101330002BF8020BE08F401EE0874FF00108781C6D
:1013400005D0FFF7F5F9A0EB0900B84246D2E08ED0
:101350000028D5D1E08F0028D2D136E0FFE7216800
:1013600015F8010B0873E08E401EE08627E000BFF1
:10137000B8F1000F0DD0E08E58B120688168890760
:1013800007D515F8011B0173E08E401EE0864FF073
:101390000008E08F58B120688168C90707D0C0688D
:1013A0000BF8010BE08F401EE0874FF00108781C1E
:1013B00005D0FFF7BDF9A0EB0900B8420ED2E08ED0
:1013C0000028D5D1E08F0028D2D13B46012202214E
:1013D0002046CDF8009001F0C5FA08B103260FE0D1
:1013E0004A463946204601F0ADFA18B101262020C0
:1013F000606505E0A06818B92068C1688068009041
:10140000012084F85100002084F85000304631E774
:101410004FF0E0210428086903D020F0040008619F
:10142000704740F00400FAE710B5401EB0F1807F2D
:1014300001D3012010BD4FF0E02460610F2160173F
:1014400000F020FE0020A06107202061002010BDD8
:1014500070B5040004D094F83900002510B106E0FE
:10146000012070BD84F83850204600F023F8242075
:1014700084F839002068C16821F40051C160204619
:1014800001F074FC2068016921F490410161206839
:10149000416921F02A0141612068C16841F400518D
:1014A000C160E563202084F8390084F83A00002008
:1014B00070BD000010B50068114986B088421DD18A
:1014C0001048816941F48041816180690E4C00F4CB
:1014D000804004904FF4007000900220019003209F
:1014E000039069462046FFF73FF800212015CDE91B
:1014F0000001029169462046FFF736F806B010BD9C
:10150000003801400010024000080140FEE7016879
:101510004A69D24352050CD46FF480624A610421B7
:101520000164002140F8301F202242730173012022
:1015300070470020704700002DE9F843044600681A
:101540000D46DDE9089701689846164641F480711A
:1015500001604B4600224FF001112046009700F039
:1015600062F8E8B9216805F0FE0008613B464A468A
:101570001849204600F088F828B1206C04280FD1C3
:101580000120BDE8F88320684169806900903A46EF
:101590004946204600F0BCF820B1206C042813D046
:1015A0000320EEE7F5B2B8F1010F09D02168300A47
:1015B00008613A464946204600F0AAF80028ECD1D6
:1015C000206805610020DCE72068016841F40071B3
:1015D0000160D5E70200010070B516460D460446CD
:1015E0001AE02046FFF793FF08B1012070BD681C88
:1015F00012D025B1FFF79CF8801BA8420CD954F8F3
:10160000400F40F0200044F8100900202060202105
:1016100061732073032070BD20684069C043400798
:10162000DFD4002070BD2DE9F0471E4690460D46E0
:101630000446C1F30747DDF8209012E0701C10D07B
:101640002EB1FFF775F8A0EB0900B04209D90020D0
:1016500044F8300F20216173A07320730320BDE88C
:10166000F0872068012F0AD0806925EA0000000475
:10167000000C06D000214145E0D00020EFE7406992
:10168000F3E70121F7E700002DE9F0479A4691467C
:101690000D46044600264FF02008C1F307472AE014
:1016A00020684069C043400512D42068016841F4B5
:1016B0000071016021686FF480604861042020643B
:1016C000266384F83D8084F83C600120BDE8F08703
:1016D000B9F1FF3F0FD0B9F1000F05D0FFF728F89F
:1016E000A0EB0A01494506D944F8306F84F80D8013
:1016F00026730320EAE72068012F07D0D0F81800EE
:1017000025EA00000004000CE0D0C9E74069F7E7D3
:1017100070B516460D4604461AE02046FFF7F7FE60
:1017200008B1012070BD681C12D025B1FFF700F888
:10173000801BA8420CD954F8400F40F0200044F818
:10174000100900202060202161732073032070BDE8
:1017500020684069C0430006DFD4002070BD00004F
:101760002DE9FC41A44C11280BD0214604F13C0288
:1017700009790A2806D2042904D230305054491C71
:10178000217118E10B2813D0012600250A2819D051
:10179000994A03270D2852696FD00C286ED00E2865
:1017A0006DD00F286CD00429EBD3042020710CE1FC
:1017B00000292AD00529F8D2491EC8B2207120215B
:1017C0001154F8E0207860B1012827D002283FD0DA
:1017D00060790C26012854D002287FD003287CD0C1
:1017E000E9E085493C31A1F1360001F0A3FD68B183
:1017F000A0781422401CA0707F4880A14130FEF7E1
:10180000DDFC2571E56384F84050E7E07A48142256
:1018100080A14130FEF7D2FC6670F2E776493C3198
:10182000A1F1360001F086FD4FF0140208B17FA14E
:101830007EE0714883A14130FEF7C0FC6E482571FF
:10184000202204213C30FEF7CBFC02202070C5E0B2
:1018500069493C31A1F13600FEF7E2FC66481422EA
:101860007EA14130FEF7AAFC257063482571202235
:1018700004213C30FEF7B4FCB0E07AE082E08BE07B
:1018800093E05D493C31A1F1360001F053FD0028A1
:101890004CD178A0CDE900600C2378229121002062
:1018A00000F0A2F900F00CFF4FF0140208B176A18D
:1018B00052E07BA156E050482571202204213C30A3
:1018C000FEF78EFC7CA0CDE900600C2378229121EC
:1018D000002000F089F96EE000E020E000F016FF43
:1018E00088B17AA0CDE900600C23782291210020F4
:1018F00000F07AF9142264A13F484130FEF75EFC03
:101900006571257057E076A0CDE900600C23782240
:101910009121002000F068F9142261A1ECE736491A
:101920003C31A1F1360001F005FD30B1142233A1A4
:1019300031484130FEF742FC97E76FA0CDE90060E7
:101940000C2378229121002000F04EF900F044FF92
:101950004FF0140228B16DA127484130FEF72EFC4C
:10196000A9E770A124484130FEF728FC6571257075
:10197000A1E7104601F0A8FE6671277025711422B8
:101980006EA104E0657126702571182271A11A48B4
:101990004130FEF713FC21E0104601F095FE67711F
:1019A00027702571142271A1F1E7104601F072FE33
:1019B0000A2001F0FDFC207980B1012811D0022815
:1019C00012D0032813D0042814D110226DA102B024
:1019D0000948BDE8F0415930FEF7F0BB10226EA176
:1019E000F5E7102271A1F2E7102275A1EFE71022AE
:1019F00078A1ECE7BDE8FC812400002070617373DE
:101A0000776F7264206572726F7220202020202010
:101A1000000000006F70656E20646F6F72202020E0
:101A200020202020202020200000000070617373FF
:101A3000776F7264206572726F72202020202020E0
:101A400020202000696E707574206E6577207061AB
:101A50007373776F72642020202020006D6F64699B
:101A60006620202073756363657373212121202014
:101A70002000000061646420696320636172642057
:101A8000202020200000000061646420696320633E
:101A9000617264206661696C2020202000000000D3
:101AA0006164642069632063617264204F4B20206D
:101AB0002020202000000000706C656173652065A7
:101AC0006E74657220616E6761696E006164642086
:101AD00069632063617264206661696C6400000060
:101AE0006164642069632063617264207375636359
:101AF000657373200000000044656C2069632063F7
:101B000061726420202020200000000064656C20A9
:101B100069632063617264206661696C2020202003
:101B20000000000064656C206963206361726420BA
:101B30004F4B202020202020000000006164642002
:101B4000696320636172642C696E70757420202053
:101B5000000000006D6F6469662070617373776FB9
:101B600072642C696E7075740000000064656C20EE
:101B7000696320636172642C696E70757420202023
:101B8000000000002A2A2A2A2020202020202020AD
:101B900020202020000000002020202020202020C5
:101BA0002020202020202020000000002A202020AB
:101BB00020202020202020202020202000000000A5
:101BC0002A2A202020202020202020202020202001
:101BD000000000002A2A2A20202020202020202067
:101BE0002020202000000000704710B500F040F8D1
:101BF0000120FEF747FB0520FEF732FC0020FEF730
:101C000041FB08210846FEF787FB3D21112001F02A
:101C100067F98621172001F063F97F21262001F062
:101C20005FF91E212D2001F05BF900212C2001F02D
:101C300057F98D212A2001F053F93E212B2001F084
:101C40004FF90220FEF70CFC2A2000F057FE052079
:101C5000FEF706FC0120FEF715FB2A2000F04EFEE1
:101C60002B2000F04BFEBDE810406420FEF7F8BBCF
:101C700070B50122294D140321462846FEF752FD76
:101C80000A20FEF7EDFB002221462846FEF74AFD1A
:101C90000A20FEF7E5FB012221462846FEF742FD19
:101CA0000A20FEF7DDFB0F21012001F019F90F21B9
:101CB000012001F015F9C820FEF7D2FB3D211120CB
:101CC00001F00EF90520FEF7CBFB1E212D2001F0BF
:101CD00007F90520FEF7C4FB00212C2001F000F9D4
:101CE0000520FEF7BDFB8D212A2001F0F9F8052023
:101CF000FEF7B6FB7F21262001F0F2F80520FEF763
:101D0000AFFB3E212B2001F0EBF80520FEF7A8FBEE
:101D10004021152001F0E4F8002070BD00080140CA
:101D200030B5ADB00025012127A8279501F021FC91
:101D30003C4C0121A06228A8289501F01AFC3A4DDC
:101D4000E062002228682990012129A801F0C2FC44
:101D500060621422291D6846FEF730FA00216846A9
:101D600001F080FCE060142205F1180105A8FEF7DF
:101D700025FA002105A801F075FC2061142205F167
:101D80002C010AA8FEF71AFA00210AA801F06AFC41
:101D90006061142205F140010FA8FEF70FFA00213F
:101DA0000FA801F05FFCA061142205F1540114A8F2
:101DB000FEF704FA002114A801F054FCE06114229B
:101DC00005F1680119A8FEF7F9F9002119A801F039
:101DD00049FC2062D5E91F01CDE91E012AA8209007
:101DE00000211EA801F0F0FA80352063D5E9020138
:101DF000CDE921012BA82390002121A801F0E4FACC
:101E00006063D5E90501CDE924012CA826900021C5
:101E100024A801F0D9FAA0631021E06A01F0E4FBE4
:101E20002DB030BD24000020185C00082DE9F043DF
:101E30003B4885B0816941F010018161816901F001
:101E400010010491816941F020018161816901F0F3
:101E500020010491816941F004018161816901F0EF
:101E600004010491816941F00801816180690122C6
:101E700000F008002B4F5403049021463846FEF72B
:101E800051FCDFF8A48001220F214046FEF74AFCF6
:101E9000DFF89890012241F2F0014846FEF742FC3B
:101EA0006610002231464046FEF73CFC00940124B7
:101EB0000325694638460194CDE90245FEF754FBF7
:101EC0000F20CDE9000469464046CDE90245FEF702
:101ED0004BFB4FF40F6000900020CDE901046946F0
:101EE0004046FEF741FBCDE9006469464846CDE92E
:101EF0000245FEF739FBCDE900640226CDE9026513
:101F000069464046FEF730FBF02003958DE851000E
:101F100069464846FEF728FB05B0BDE8F08300009F
:101F2000001002400010014000080140000C014078
:101F30000E4810B50C4901600D49416000214FF475
:101F400080428160C0E9031241618161C161016227
:101F5000FEF70EFC002805D0BDE810404D2105A07D
:101F600000F0E4BF10BD0000005400404801002014
:101F7000A08601002E2E2F5372632F6932632E63C9
:101F8000000000000E4810B50C4901600D49416089
:101F900000214FF480428160C0E9031241618161F8
:101FA000C1610162FEF7E4FB002805D0BDE81040E6
:101FB000602105A000F0BABF10BD0000005800402D
:101FC0009C010020A08601002E2E2F5372632F69E2
:101FD00032632E6300000000114810B50F49016004
:101FE0004FF482714160002102228160C0E9031236
:101FF00001224261520282610822C0E90721416246
:1020000081620A21C162FFF7A7F8002805D0BDE868
:1020100010404F2103A000F089BF10BD00380040E0
:10202000F00100202E2E2F5372632F7370692E63E0
:10203000000000000D4810B50B4901604FF4E1317C
:102040004160002181600C22C160C0E904128161FD
:10205000C161FFF7FDF9002805D0BDE810404C2113
:1020600003A000F063BF10BD00380140480200200B
:102070002E2E2F5372632F75736172742E630000BE
:10208000FEE770470907090E002806DA00F00F0086
:1020900000F1E02080F8141D704700F1E02080F886
:1020A0000014704770B506465FF0000404F1B000FC
:1020B000C0B200F031F9012000F02EF9102000F03C
:1020C0002BF90025304600F039F96D1CEDB2802D5A
:1020D000F8D3641CE4B2082CE8D370BD08B5AE2078
:1020E00000F01AF9202000F017F9102000F014F980
:1020F000B02000F011F9C02000F00EF9002000F02F
:102100000BF9102000F008F9402000F005F98120BB
:1021100000F002F9FF2000F0FFF8A02000F0FCF82A
:10212000A62000F0F9F8A82000F0F6F83F2000F013
:10213000F3F8A42000F0F0F8D32000F0EDF8002030
:1021400000F0EAF8D52000F0E7F8F02000F0E4F81D
:10215000D92000F0E1F8222000F0DEF8DA2000F0CB
:10216000DBF8122000F0D8F8DB2000F0D5F82020B2
:1021700000F0D2F88D2000F0CFF8142000F0CCF859
:10218000AF2000F0C9F80020FFF78CFF0A480021BB
:10219000009040237F220846FEF746F94FF47A70FC
:1021A000FEF75EF90020FFF77DFF0021BDE8084043
:1021B000084600F09DB80000505800082DE9F0478F
:1021C00090468A4605460026DFF848901CE02038F5
:1021D000C7B27E2D04D90AF10100002500F0FF0AE4
:1021E0005146284600F084F807EB4700002409EB2D
:1021F0004007385D00F0A2F8641CE4B2062CF8D366
:10220000AD1D761CEDB2F6B218F806000028DED13E
:10221000BDE8F087385000082DE9F04715008846E2
:1022200004464FF0000601D42EA201E055422EA232
:10223000FFF7C4FF642095FBF0F10A2091FBF0F258
:1022400000FB121110318FB295FBF0F191FBF0F20F
:1022500000FB121110311FFA81F995FBF0F100FB20
:10226000115010301FFA80FA7E2C04D908F10100B9
:10227000002400F0FF08A01DC0B2414600F038F86D
:102280001A4D07EB470005EB4007B85D00F056F824
:10229000761CF6B2062EF8D304F10C00C0B241460B
:1022A00000F026F809EB4900002605EB4007B85D71
:1022B00000F044F8761CF6B2062EF8D31234E0B2E1
:1022C000414600F015F80AEB4A00002405EB4005F2
:1022D000285D00F033F8641CE4B2062CF8D3BDE8A6
:1022E000F0870000200000002D000000385000089A
:1022F00010B50446B031C8B200F00EF8102040EA24
:10230000141000F009F804F00F00BDE8104040F090
:10231000010000F001B8000001B584B001211022D5
:1023200004A88DE807000B46002278210248FEF73A
:10233000BFFA05B000BD00009C01002001B584B0CB
:102340000121102204A88DE807000B4640227821C5
:102350000248FEF7ADFA05B000BD00009C01002068
:1023600070B50646082188B000240846FDF7D4FF62
:1023700000210D2000F0B4FD80210E20FDF7CCFFE0
:1023800093208DF8040020208DF8050006A801ABED
:102390000090022219460C2000F040F805000DD1F3
:1023A000002101A8425C7254425C491C5440C9B2ED
:1023B0000429F7D3405CA04200D0FE2580210E20E6
:1023C00000F030FB08B0284670BD30B587B08DF8FE
:1023D00004008DF80510002001A9145C0D18401CA4
:1023E000C0B2AC700628F8D300200C181A5C401C50
:1023F000C0B222720628F8D306A800900B460C2221
:102400000E2000F00BF8040004D1082000F076FA4A
:10241000000700D4FE2407B0204630BD2DE9FF5F41
:102420000027FE25DDF838A016468B468146B846C3
:102430000C2805D0B9F10E0F05D11227102001E0AC
:1024400077273020804647F08001022000F048FDC9
:1024500080210420FDF760FF0021012000F040FDF5
:1024600080210A2000F0DEFA002405E01BF80410A9
:10247000092000F035FD641CB442F7D34946012021
:1024800000F02EFDB9F10C0F03D180210D2000F0DA
:10249000C9FA284E042000F031FA0446761E04D012
:1024A000E00702D114EA080FF4D080210D20FDF7D7
:1024B00033FF36B1062000F021FA10F01B0F0CD0CC
:1024C000FE2580210C2000F0ADFA0021012000F053
:1024D00007FD04B02846BDE8F09F00253C40E0071A
:1024E00000D0FF25B9F10C0FEBD10A2000F006FA5D
:1024F00004460C2000F002FA10F0070003D0E100BF
:102500000839084400E0E0008AF8000024B1122CE9
:1025100004D91224002603E00124FBE7002605E08D
:10252000092000F0EBF903998855761CA642F7D3F1
:10253000C7E70000A086010030B587B00D46302106
:102540008DF8041001AC8DF8050002212046A21C74
:10255000FDF7AFFE06A801AB0090042219460C203F
:10256000FFF75CFF18B99DF81810902902D0FE20E3
:1025700007B030BD0023E15CE9545B1CDBB2102BDB
:10258000F9D3F5E730B50C460546082187B0084673
:10259000FDF7C2FE07210D2000F0A2FC032114204C
:1025A00000F040FA06A801AB00908DF8045001221B
:1025B00019460C20FFF732FF18B99DF818101029A2
:1025C00002D0FE2007B030BD9DF8041021709DF8A8
:1025D00005106170F6E710B588B093218DF80410EE
:1025E00070218DF8051000218DF80A1001AA5418E9
:1025F000435CA370445C9DF80A30491C6340C9B237
:102600008DF80A300429F2D3072101A8D21DFDF765
:1026100050FE08210846FDF77FFE06A801AB00909A
:10262000092219460C20FFF7F9FE18B99DF8181079
:10263000182900D0FE2008B010BD70B588B00D4636
:10264000A0218DF8041001AC8DF805000221204670
:10265000A21CFDF72EFE06AE01AB042219460C208B
:102660000096FFF7DBFE38BB9DF81800042823D145
:102670009DF8040000F00F000A281DD10020295CFD
:102680002154401CC0B21028F9D305AA102101A87A
:10269000FDF70FFE01AB122219460C200096FFF742
:1026A000BDFE48B99DF81810042905D19DF8041005
:1026B00001F00F010A2900D0FE2008B070BD000013
:1026C00038B569465220FFF75DFF0E48FFF748FE18
:1026D0000C48FFF780FF0B4B02211A1D6020FFF70B
:1026E00074FE044610210848FDF781FD44B90A2014
:1026F000FDF7B6FE034902200F39FFF79EFF04469F
:10270000204638BD18000020280100207CB52D4946
:102710005220FFF737FF2B4CE41E002860704DD18C
:1027200004F11400FFF71CFE607004F11400FFF7C1
:1027300052FF6070002841D104F114031A1D0221D8
:102740006020FFF742FE607010211F48FDF74FFD2B
:102750001D490220FFF7F0FE6070102000F0B4FD6C
:1027600019492061CB788A78CDE900234B780A7823
:1027700016A100F0DDFB102000F0A6FD0546601D4F
:10278000C2788178CDE90012437802780FA12846FB
:1027900000F0CEFB28462169FDF734FD002678B114
:1027A000FD206070202000F08FFD00F095FC284691
:1027B00000F092FC206900F08FFC266160787CBDFF
:1027C0006670EFE7070000203801002025642564CB
:1027D000256425640000000038B5002469465220B5
:1027E000FFF7D0FE1248FFF7BBFD1148FFF7F3FEDD
:1027F0000F4B02211A1D6020FFF7E7FD054610214F
:102800000C48FDF7F4FC85B90A20FDF729FE01E02C
:10281000641CE4B207490220FFF70FFF08B10A2C3D
:10282000F6D30A2C01D9FE2038BD284638BD000059
:1028300018000020280100207CB52B495220FFF70A
:10284000A1FE294CE41E0028207048D104F1140098
:10285000FFF786FD207004F11400FFF7BCFE207026
:1028600000283CD104F114031A1D02216020FFF757
:10287000ACFD207010211D48FDF7B9FC1B4902205A
:10288000FFF75AFE2070102000F01EFD1749E0608F
:10289000CB788A78CDE900234B780A7814A100F030
:1028A00047FB102000F010FD0546601DC2788178BE
:1028B000CDE90012437802780DA1284600F038FBDC
:1028C0002846E168FDF79EFC002650B1FD202070EF
:1028D000284600F001FCE06800F0FEFBE66020788E
:1028E0007CBD2670F4E700000700002038010020BE
:1028F00025642564256425640000000070B50F4E32
:1029000004464FF48055002229463046FDF70AFF61
:102910007E2000EA44000A4C40F08001204600F08E
:102920006DF80021204600F069F80446012229468E
:102930003046FDF7F7FE204670BD0000000C014058
:102940000038004038B50B46009204460022802132
:1029500000F008F8002804D0606D40F020006065A9
:10296000032038BD2DE9F0411D4617460E460446AA
:10297000DDF8188035E0681C33D02DB1FDF7D8FEA6
:10298000A0EB0800A8422CD32068416821F0E001A8
:1029900041606068B0F5827F0BD1A068B0F5004F50
:1029A00002D0B0F5806F04D12068016821F04001A9
:1029B0000160A06AB0F5005F0AD1206801684DF699
:1029C000FF72114001602068016841F4005101600C
:1029D000012084F85100002084F850000320BDE855
:1029E000F0812068806836EA000004D00020B842F8
:1029F000C1D10020F3E70120F9E7000038B5074C0A
:102A0000FF20621C217000900123511E0448FEF734
:102A100013FC08B1FF2038BD607838BD00000020ED
:102A2000F001002070B50C460546FFF767FF40EA4D
:102A300004012846BDE8704000F052BA4FF47A74A1
:102A4000204600F0B5FCFBE70026194D374634461A
:102A50001021E86A00F0C8FD00B916B1012E0ED0B1
:102A600021E0686900F030FE286900F02DFE0126A3
:102A700000273046FDF75EFCFDF75AFE12E041F2FA
:102A8000883087420AD900263046FDF753FC686932
:102A900000F000FE0A2000F08BFC04E0FDF748FE89
:102AA000011B0F440446C82000F082FCD0E7000060
:102AB000240000200025DFF884802E462F4600BF2A
:102AC00000F038FB0446FEF74BFE112C15D0002514
:102AD00098F80200444603280BD31848142218A182
:102AE0004130FDF76BFB761CF6B2502E01D3002669
:102AF000A770607801280CD011E06D1CEDB2142D88
:102B0000E6D30E481425202218214130FDF768FB3A
:102B1000DEE7A078032802D2E06A00F03DFD074915
:102B2000606B593100F0C8FC0449A06B413100F0E2
:102B3000C3FC6770642000F03BFCC1E72400002068
:102B40006D61782065727220636E742020202020D1
:102B500020202020000000000EB51C4D00244FF462
:102B60007A760A226846296B00F05CFC00982028DF
:102B700006D1164A0D2369320221002000F0EEFB37
:102B80000A226846696B00F04DFC0098202806D1A7
:102B90000E4A0F2359320421002000F0DFFB0A22E5
:102BA0006846A96B00F03EFC084A14234132072115
:102BB000002000F0D3FB641CE4B222460021402038
:102BC000FFF72AFB304600F0F3FBCAE724000020A1
:102BD0000A4C0B4E4FF400554FF47A771021A06A3F
:102BE00000F002FD40B1012229463046FDF79AFD72
:102BF000384600F0DDFBF1E70022F5E72400002075
:102C00000010014088B020216846FDF7F0FA1C4D05
:102C10001C4C4FF47A762868800705D51A48FDF7D2
:102C20008DFD1948FDF7A4FDFFF706FE98B1154884
:102C30000E216930FDF7DBFA12480E2213A169302C
:102C4000FDF7BCFA0F49206B693100F035FC3046C6
:102C500000F0AEFBDFE7684601F072F909480E218B
:102C60006930FDF7C4FA07480E220CA16930FDF760
:102C7000A5FAA06A00F090FCE06A00F08DFCE1E7A4
:102C800018580040240000209C0100206E6F742022
:102C90006861766520636172640000002020202056
:102CA00068617665206361726400000010B5FDF70D
:102CB00017FFBDE8104000F0CBBC30B58FB001214C
:102CC0000804CDE900100024029402250491CDE906
:102CD00007504FF4E01009906846FEF7BBF800B1CA
:102CE000FEE70F20CDE90A054FF48060CDE90C40E6
:102CF00002210AA80E94FDF7A7FF00B1FEE7FEF738
:102D00004DF84FF47A71B0FBF1F0FEF78DFB042023
:102D1000FEF77EFB00220F21501EFDF763FF0FB070
:102D200030BD00000D48016841F0010101604168BB
:102D30000B4A1140416001680A4A11400160016874
:102D400021F480210160416821F4FE0141604FF4CB
:102D50001F0181600449C0030860704700100240F1
:102D60000000FFF8FFFFF6FE08ED00E02DE9F0415E
:102D7000044600680169E26821F440511143016191
:102D80002169A0680843616908432168CA6841F263
:102D90000C639A430243CA6020684169A26921F426
:102DA0004071114341614C492068642532268842B4
:102DB0003CD1FEF709F800EBC00101EB001061689F
:102DC0008900B0FBF1F7FDF7FFFF00EBC00101EB5D
:102DD00000106168B0468900B0FBF1F0B0FBF5F07F
:102DE0006FF01801484307EB800106EB0110B0FBC0
:102DF000F5F000F0F006FDF7E7FF00EBC00101EB96
:102E0000001061688900B0FBF1F0B0FBF5F006EB53
:102E10000016FDF7D9FF00EBC00101EB001061685F
:102E20008900B0FBF1F7FDF7CFFF3BE0FDF7BCFFFA
:102E300000EBC00101EB001061688900B0FBF1F705
:102E4000FDF7B2FF00EBC00101EB00106168B04676
:102E50008900B0FBF1F0B0FBF5F06FF018014843CA
:102E600007EB800106EB0110B0FBF5F000F0F00677
:102E7000FDF79AFF00EBC00101EB001061688900CB
:102E8000B0FBF1F0B0FBF5F006EB0016FDF78CFFA0
:102E900000EBC00101EB001061688900B0FBF1F7A5
:102EA000FDF782FF00EBC00101EB001061688900B3
:102EB000B0FBF1F0B0FBF5F06FF01801484307EB01
:102EC000800108EB0110B0FBF5F0216800F00F0065
:102ED00030448860BDE8F08100380140FEE7000022
:102EE0002DE9F0410D467E2101EA40040D4F4FF4DB
:102EF0008056002231463846FDF714FC21460A4C24
:102F00002046FFF77BFD29462046FFF777FD01228B
:102F100031463846FDF706FCBDE8F0410520FDF7D7
:102F20009FBA0000000C014000380040FEE700009E
:102F30000FB4084B10B504A902AA039800F01CF8BE
:102F4000044602A9002000F0C1F8204610BC5DF83C
:102F500014FB0000CD30000802E008C8121F08C1B1
:102F6000002AFAD170477047002001E001C1121F0A
:102F7000002AFBD1704700002DE9FF4F89B09B4626
:102F80000446002506E025280BD05A460B999047A9
:102F9000641C6D1C20780028F5D10DB02846BDE8D2
:102FA000F08F0027B8460122474900E0074314F894
:102FB000013F203B02FA03F00842F7D120782E2887
:102FC00019D114F8010F47F004072A280ED06FF02A
:102FD0002F022078A0F1300109290CD808EB8801D4
:102FE00002EB410100EB0108641CF2E70A98641C43
:102FF00050F8048B0A9020780028CED0642808D09E
:10300000692806D075281ED05A460B9990476D1C2A
:1030100058E00A994FF00A0901C90A91002802DA1A
:1030200040422D2102E0390504D52B218DF82010D6
:10303000012103E0F90704D02021F7E78A4608AE12
:103040000DE00021FAE70A994FF00A0901C90A9137
:10305000F7E74946FDF7EDF8303106F8011D002885
:10306000F7D1ADEB060000F12009780701D44FF04D
:103070000108C84502DDA8EB090000E000208046F9
:10308000002706E008A85A46C05D0B9990476D1CC2
:103090007F1C5745F6DB04E030205A460B999047D9
:1030A0006D1CB8F10001A8F10108F5DC05E016F887
:1030B000010B5A460B9990476D1CB9F10001A9F11B
:1030C0000109F4DC641C65E7092801000A68531C47
:1030D0000B6010707047000010B5002821D0114B14
:1030E0000022001F196803E0814203D80A4649689C
:1030F0000029F9D152B11368841A9C4204D10068A6
:1031000018441060104602E0506000E0186039B1C9
:1031100002680B1A934203D10B681A440260496893
:10312000416010BD20010020EFF30580002800D091
:103130000120704770B54D4D1124A8684C4EC0B2A7
:103140000F2872D0022000F033F9A868C0B20F280F
:103150006CD0F078002869D1012211462846FDF78D
:10316000E1FA00220E212846FDF7DCFAA868C0B279
:10317000112806D0212806D0412806D0812807D161
:1031800005E0072404E0042402E0012400E00B240D
:10319000012202212846FDF7C5FA00220D2128460A
:1031A000FDF7C0FAA868C0B2122806D0222806D0BF
:1031B000422806D0822807D105E0082404E005242F
:1031C00002E0022400E00024012204212846FDF749
:1031D000A9FA00220B212846FDF7A4FAA868C0B27C
:1031E000142806D0242806D0442806D0842807D1E5
:1031F00005E0092404E0062402E0032400E00A2498
:10320000012208212846FDF78DFA002207212846D1
:10321000FDF788FAA868C0B2182808D0282808D076
:10322000482808D0882809D107E01DE01AE00C24BE
:1032300004E00D2402E00E2400E00F2401220F21FF
:103240002846FDF76FFA0022F0212846FDF76AFABA
:10325000A868C0B20F2803D1F078012800D111244A
:103260000120F070204670BD0020FAE70008014000
:1032700024000020FDF73CFCFFF71FFDFEF7D6FD04
:10328000FEF7AAFEFEF7D6FEFEF752FEFEF77AFE26
:10329000FEF7ABFCFEF722FF002106A20846FEF770
:1032A0008DFFFEF73DFD00F08AF86420FDF7D8F8A9
:1032B000FBE7000072633532320000000146002057
:1032C000842900D0C81C7047F0B50B30154D20F094
:1032D00007010024144A0FE003688B420BD38B4292
:1032E00005D95E1A43184768C3E9006700E04368E0
:1032F000136002C004E0021D10680028ECD12046D3
:10330000002802D1286808B10020F0BD064A07480D
:103310001060074A121A22F00702C0E900240120B7
:103320002860D7E724010020200100207C3E0020F7
:103330007842002002E05AB1401C491C02780B7808
:103340009A42F8D01006B0EB036F03D90120704702
:10335000002070474FF0FF30704700002DE9F05F0C
:103360001F4691468B4682460024DFF8408019E0D4
:1033700019F8040004EB44012038C6B20AEB4100FE
:10338000C0B25946FEF7B4FF06EB4600002508EB35
:103390004006705DFEF7D2FF6D1CEDB2062DF8D32E
:1033A000641CE4B2BC42E3D3BDE8F09F385000088F
:1033B00010B500B9012000F0EDFE002010BD10B5E1
:1033C00000F0DAFF002010BD3EB50446002000905A
:1033D0000190029020680090606801900C2000F03D
:1033E00025FDA1680028086019D00460002204218E
:1033F000206801F0D7F8A16809684860A1680968E9
:1034000070B1684600F086F80100A068006881602D
:10341000A068006803D100BF00F01EFE00203EBD82
:103420000846F9E72DE9FF410D000646029522D036
:103430004FF000084446CDF80C80501C20D002B15B
:103440001446FFF771FE20270028686869461CD0E3
:1034500003AA091D01F020FB012814D0CDF800803B
:103460000398E0B113494FF080500860BFF34F8FCD
:10347000BFF36F8F13E0802000902A46019910E07F
:103480004FF0FF34DDE70097EAE700232246091DED
:1034900001F0ACF8012808D04CB1402000909DE824
:1034A000070086E80700BDE8FF810097F7E70020E6
:1034B000F4E7000004ED00E013B582B004000FD083
:1034C00000200090FFF730FE002860684FF00003F6
:1034D00014D06A4603A901F033FA012814D102E09E
:1034E000802004B010BD009880B109494FF0805091
:1034F0000860BFF34F8FBFF36F8F07E0002203A96F
:1035000001F06EF9012801D0FF20EAE70020E8E78A
:1035100004ED00E02DE9F04105464068C01C20F0B4
:103520000307142000F082FC04001FD00026286846
:103530002661C4E90207286800F078FC606088B161
:103540002868784300F072FC206040B1002002E05F
:1035500061680E54401C29688142F9D806E0606811
:1035600000F07AFD204600F077FD00242046BDE8FB
:10357000F08110B5012901D0002010BD03220021E7
:10358000012001F00FF8040004D000231A46194668
:1035900001F026F9204610BD38B5002405460094F8
:1035A000FFF7C2FD90B16946284601F027FA0128CD
:1035B00001D0FF2038BD009888B10A494FF08050F3
:1035C0000860BFF34F8FBFF36F8F08E000231A46E8
:1035D0001946284601F004F9012800D0FF242046AE
:1035E00038BD000004ED00E038B505004FF00000E4
:1035F00000900FD00024481C0ED001B10C46FFF7FC
:1036000093FDB8B16A460021284601F045FA012829
:1036100018D104E0802038BD4FF0FF34EFE7009868
:1036200090B10A494FF080500860BFF34F8FBFF34D
:103630006F8F09E0002322461946284600F0D6FF86
:10364000012801D0FF2038BD002038BD04ED00E086
:1036500010B501F0D1FA012803D0BDE8104000F008
:103660008BBF10BD3EB504460D46B0F90800FFF70C
:1036700025FE02A9CDE90001208A2B4682B2D4E9B9
:10368000001001F08DFA012801D000203EBD029803
:103690003EBD000010B50446FFF746FD0028204659
:1036A0000BD001F009FC012809D106490007086088
:1036B000BFF34F8FBFF36F8F01E000F00DFE0020CE
:1036C00010BD000004ED00E010B500F08DFE0020FC
:1036D00010BD000008B500680090012907D0002047
:1036E00013460246012103A001F02AFC08BD012077
:1036F000F6E70000000000002DE9F041184C0F46ED
:103700000546E6682068001D00F02EFC38B92068E8
:1037100090F82C1001208840216981432161681CA8
:1037200007D137B12168BDE8F0410E48091D00F00E
:1037300053BC20683544B5424560216805D2A06B72
:10374000BDE8F041091D00F02FBC606B091D00F0C1
:103750002BFCA06A854200D2A562BDE8F081000082
:10376000D00000203C3E00202DE9F041054600F04D
:103770003FFC2E4CA068401CA06020682C4F10B16C
:10378000606940B32DE02560A068012829D100269A
:1037900006EB860007EB800000F0F8FB761C072E96
:1037A000F6D323488C3000F0F1FB2148A03000F024
:1037B000EDFB1F48B43000F0E9FB1D48C83000F0B5
:1037C000E5FB1B48DC3000F0E1FB19488C306063FE
:1037D0001430A06305E02068E96AC06A884200D816
:1037E0002560606A401C6062E96A012022698840A5
:1037F0001043206101EB810007EB8000291D00F0E0
:10380000EBFB00F015FC606900280CD02068E96A29
:10381000C06A884207D207494FF080500860BFF362
:103820004F8FBFF36F8FBDE8F0810000D000002004
:10383000603D002004ED00E010B500F0D9FB0E4C17
:103840002068A0B90D4800F0A1FB0C48143000F02E
:103850009DFB0A48E0601430206100220C210A2000
:1038600000F0A0FE206010B105A100F05DFCBDE8F5
:10387000104000F0DDBB00000C010020503E002095
:10388000546D72510000000070B5114E114C17E0DC
:1038900000F002FE3068B8B101F0ACFA00F0A8FB0D
:1038A000F068C568281D00F05FFBA068401EA0609E
:1038B0006068401E606000F0BBFB284600F055F8D1
:1038C00060680028E4D170BD01F094FAF8E70000C8
:1038D000283E0020D000002030B4026C0B46002AA5
:1038E0000BD0C1681144C1604468A14201D3016892
:1038F000C16030BC1846FCF761BC30BC70472DE994
:10390000F041856B174604460026026C82B1C7B1B0
:10391000E068FCF753FCE168206C091AE16022685A
:10392000914202D26168081AE060022F16D017E0B7
:103930002068A8B9606801F0D7F9064600206060E9
:103940000EE0A068FCF73AFC216CA0680844A06077
:103950006168884204D32068A06001E005B16D1E53
:103960006D1CA5633046BDE8F08110B50446006BC0
:1039700000F072FB2046BDE8104000F06DBB000077
:103980000F4843F69821420705D0C01D0C4A20F08D
:103990000700821A891A0B4A00230144C2E9000376
:1039A0000839103A21F0070111604B600B600B1AC7
:1039B000C0E9001393604FF000405360D06070473F
:1039C00088020020BC000020074C4FF08056074DB5
:1039D000FFF75AFF20680128FAD92E60BFF34F8FF6
:1039E000BFF36F8FF4E70000603D002004ED00E0BE
:1039F0002DE9F0479A46DDE9098481466FF003031B
:103A0000206B03EB82021044089D20F0070670072C
:103A100007D0502080F31188BFF34F8FBFF36F8F13
:103A2000FEE723180A5C83F834200A5C12B1401CBC
:103A30001028F6D3002784F84370072D00D30625FD
:103A4000E562C4E91157201D00F0ABFA04F118003B
:103A500000F0A7FA2461C5F107006462A061E76481
:103A600084F8507052464946304600F057FA2060BC
:103A7000B8F1000F01D0C8F80040BDE8F0870000A1
:103A800030B5114900E011460A688242FBD34B6809
:103A90005C18844203D14068184448600846436873
:103AA0001C18944209D1084C103C2468A24209D049
:103AB00052681A4442600A6812680260814200D06B
:103AC000086030BD0460F9E7BC00002070B5002438
:103AD00041600B4D0061914206D8D11A8269914232
:103AE00006D2011D286907E09A4203D2994201D308
:103AF000012403E0011DE86800F056FA204670BD7D
:103B00000C01002010B5044600F072FAA06B28B139
:103B10005FF0000400F08CFA204610BD0124F9E7A4
:103B200030B587B02B4D4BE00498002848DB069C4D
:103B3000606910B1201D00F017FA02A800F0B6F875
:103B4000024604980A283BD2DFE800F00505053A52
:103B5000263705053A260598A16903460144204603
:103B6000FFF7B4FF00B3616A20468847E069012887
:103B700026D1002000900598A1690023421819461B
:103B8000204601F029FA78B9502080F31188BFF35C
:103B90004F8FBFF36F8FFEE70598A06128B18118A2
:103BA00013462046FFF792FF0AE0502080F3118869
:103BB000BFF34F8FBFF36F8FFEE7204600F04CFA44
:103BC00000231A4604A9286800F010FD0028ABD194
:103BD00007B030BD0C0100202DE9FC410F46054621
:103BE00000F05AFC01A800F061F80446019818B1F1
:103BF00001F000F9BDE8FC81224EAFB130690068E8
:103C0000A8B30027291B3A46306800F0A1FA01F05A
:103C1000F1F80028EED11C494FF080500860BFF346
:103C20004F8FBFF36F8FE5E7A542EBD801F0E2F8C5
:103C3000F0682746C068C468201D00F095F9E06967
:103C4000012810D1A0692B4641193A462046FFF7BA
:103C50003DFF40B100200346014600902A46204621
:103C600001F0BAF920B1616A20468847C2E707E04F
:103C7000502080F31188BFF34F8FBFF36F8FFEE7A3
:103C80000127BFE70C01002004ED00E00648416B6E
:103C9000096829B1416BC968C96849688162704780
:103CA0004FF0FF31FAE70000D000002070B5054664
:103CB00000F0B0FF064E0446B068844203D200F024
:103CC00009F8012000E0002028602046B46070BDA3
:103CD0000C010020F8B5194D1FE0C068C4680668E3
:103CE000201D00F041F9616A20468847E0690128FB
:103CF00013D1A0693044B04206D924616060211D0F
:103D0000E86800F051F908E0002003460146009001
:103D10003246204601F060F938B1E86801680029B0
:103D2000DBD12969C5E90310F8BD502080F3118863
:103D3000BFF34F8FBFF36F8FFEE700000C01002031
:103D400008484068401C4FF0500080F3118804D0B0
:103D5000BFF34F8FBFF36F8FFEE7BFF34F8FBFF3FC
:103D60006F8FFEE7C4000020002150B10A4B42696A
:103D70009A420FD1806AA3F1280290420AD040B142
:103D800008E0502080F31188BFF34F8FBFF36F8F8F
:103D9000FEE70121084670473C3E0020074CE068E2
:103DA000016841B1C0680021D0F80000FFF714FF9E
:103DB000FFF7B6FEF3E701210020F7E70C01002032
:103DC0002DE9F041044600F013F994F9455004F14F
:103DD000240609E0606A48B1304600F0D1FF08B11E
:103DE00000F0FEF96D1E6DB2002DF3DC4FF0FF36D2
:103DF00084F8456000F01CF900F0FAF894F944509A
:103E000004F1100709E0206948B1384600F0B8FF16
:103E100008B100F0E5F96D1E6DB2002DF3DC84F8F9
:103E20004460BDE8F04100F003B900002DE9F04125
:103E30000546002700F030FB314E306808B9FFF727
:103E40009FFDF06805424BD1C5B3083568070ED019
:103E500005F00700C0F108000544680707D05020AE
:103E600080F31188BFF34F8FBFF36F8FFEE72DB341
:103E70007068854234D82248103001460C6801E051
:103E800020460C466168A94202D221680029F7D178
:103E900031688C4224D00768216801606068083767
:103EA000411B10290FD96019420708D0502080F318
:103EB0001188BFF34F8FBFF36F8FFEE710E04160B3
:103EC0006560FFF7DDFD61687068401A7060B26878
:103ED000904200D2B060F06801430020C4E90001C4
:103EE00000F088FF780707D0502080F31188BFF3D7
:103EF0004F8FBFF36F8FFEE73846BDE8F0810000BB
:103F0000AC0000200449086818B10868826C521C93
:103F10008264086870470000D000002010B5031FBD
:103F20004FF080741C601B1F21F001011960191FE4
:103F3000024B0B60143940380A6010BD413D000847
:103F400070B5084B05461A1D01216020FEF73DFAA9
:103F5000044C2946143CA0700120FEF7EDFAA07035
:103F600070BD000018000020D0E9013201699A609C
:103F7000D0E901235A604A68824201D182684A60CE
:103F8000002202610868401E0860704700F10801C5
:103F90004FF0FF32C0E90112C160016100210160F0
:103FA000704700210161704730B50B685A1C02D080
:103FB00000F1080202E0026904E022465468256824
:103FC0009D42FAD953684B6099608A6051600861DC
:103FD0000168491C016030BD42684A6093688B608B
:103FE00093685960916008610168491C01607047DD
:103FF000502080F31188BFF34F8FBFF36F8F0A49B2
:104000004868401C486001280CD10848006810F03E
:10401000FF0F07D0502080F31188BFF34F8FBFF3FD
:104020006F8FFEE770470000C400002004ED00E041
:104030000849486828B1401E486001D180F31188C2
:104040007047502080F31188BFF34F8FBFF36F8FFD
:10405000FEE70000C400002070B5002827D0144DF2
:10406000A0F108046168E868014207D1502080F39C
:104070001188BFF34F8FBFF36F8FFEE722683AB10D
:10408000502080F31188BFF34F8FBFF36F8FFEE78F
:104090008143616000F000FA606869680844686004
:1040A0002046FFF7EDFCBDE8704000F0A3BE70BDF8
:1040B000AC00002006484FF47A710068B0FBF1F1C3
:1040C0004FF0E020491E4161072101617047000067
:1040D000A800002010B5FCF75BF8114910280ED39A
:1040E00000F1E02090F8F0030A78904207D25020C7
:1040F00080F31188BFF34F8FBFF36F8FFEE709483E
:104100000068896800F4E060884207D9502080F395
:104110001188BFF34F8FBFF36F8FFEE710BD000014
:10412000C40000200CED00E010B5084B002200BFD9
:1041300053F832401CB1521C082AF9D310BD43F881
:10414000321003EBC201486010BD0000203D00208A
:1041500070B515460E460446FFF74AFF94F9441021
:104160000020491C01D184F8440094F94510491CF1
:1041700001D184F84500FFF75BFFA06B28B92A4600
:10418000314604F1240000F049F82046BDE87040B3
:10419000FFF716BE10B5020014D00F48006B38B1FF
:1041A000502080F31188BFF34F8FBFF36F8FFEE76E
:1041B00000F072F900211046FFF79EFA00F01AFE97
:1041C000002807D105494FF080500860BFF34F8F9A
:1041D000BFF36F8F10BD0000D000002004ED00E0A1
:1041E00001490120C8617047D000002010B50C467D
:1041F00050B1094909681831FFF7D6FE2046BDE8DD
:1042000010400121FFF778BA502080F31188BFF3E6
:104210004F8FBFF36F8FFEE7D000002070B51446BC
:104220000D4668B10A4909681831FFF7D5FE0CB18F
:104230004FF0FF3521462846BDE87040FFF75CBAD5
:10424000502080F31188BFF34F8FBFF36F8FFEE7CD
:10425000D000002070B5040039D01D4DE06A2968F7
:10426000C96A884233D2A069002804DB2868C06A82
:10427000C0F10700A061E16A164E01EB810160699F
:1042800006EB810188421FD1201DFFF76DFE012141
:1042900050B9E06A00EB800256F8222022B92A6960
:1042A00001FA00F082432A612868C06AE0622A6944
:1042B00081401143296100EB800006EB8000211D45
:1042C000BDE87040FFF788BE2868C06AE06270BD34
:1042D000D0000020603D002070B504002BD01A4DA6
:1042E000286884422FD0FFF783FE2046FFF73CFD6D
:1042F000E8B1201DFFF738FEE06A01212A698140FC
:1043000011432961114900EB800001EB8000211D60
:10431000FFF762FEE06A2968C96A884207D30C4940
:104320004FF080500860BFF34F8FBFF36F8FBDE831
:104330007040FFF77DBE502080F31188BFF34F8F90
:10434000BFF36F8FFEE770BDD0000020603D0020FE
:1043500004ED00E028B107490A6A0260C9684160BB
:104360007047502080F31188BFF34F8FBFF36F8FDA
:10437000FEE70000D00000201CB517480024CDE95E
:1043800000402346802215A1164800F009FC0128B0
:1043900003D100F0FDFD012809D0401C1AD15020A6
:1043A00080F31188BFF34F8FBFF36F8FFEE750206C
:1043B00080F31188BFF34F8FBFF36F8F06484FF024
:1043C000FF312C38816201214161C460BDE81C408D
:1043D00000F098B81CBD0000FC00002049444C458A
:1043E00000000000C939000870B50446FFF700FE60
:1043F000264D04B92C68201DFFF7B6FD58B9E06AB8
:10440000234A00EB800152F8211021B9012181409B
:10441000286988432861A06A18B104F11800FFF7E1
:10442000A3FD1B48211DDC30FFF7D6FDFFF700FE82
:10443000686928B1FFF7DCFDFFF728FCFFF7F8FDFE
:104440002868844213D1686990B1286B38B1502034
:1044500080F31188BFF34F8FBFF36F8FFEE70D49D5
:104460004FF080500860BFF34F8FBFF36F8F70BD68
:104470000748A968DC300068884202D10020286023
:1044800070BDBDE8704000F00FB80000D000002003
:10449000603D002004ED00E00248016B491C01630F
:1044A00070470000D00000201448016B11B10121B9
:1044B000C16170470021C1610169B1FA81F1C1F1A7
:1044C0001F0101EB81020E4951F822306BB101EB63
:1044D000820101F108034A6852684A609A4201D198
:1044E00052684A60D16801607047502080F311889B
:1044F000BFF34F8FBFF36F8FFEE70000D0000020A7
:10450000603D00201CB5194908780190FF20087013
:1045100008788DF800009DF80000154A00F0500062
:1045200010700720906005E09DF800305B008DF86A
:104530000030401E9DF800301B06F5D4000200F448
:10454000E0609060019808700A48016841F47001C9
:104550000160016841F070410160FFF7ABFD002090
:104560005060FBF7DFFD00201CBD000000E400E010
:10457000C400002020ED00E010B5502080F3118829
:10458000BFF34F8FBFF36F8F00F04AFB18B10449A0
:104590004FF080500860002080F3118810BD0000AB
:1045A00004ED00E070B50E46050013D0D6B105FB52
:1045B00006F04830FFF73AFC040009D004F1480146
:1045C00020468EB10160C0E90F56012100F0C4F809
:1045D000204670BD502080F31188BFF34F8FBFF38A
:1045E0006F8FFEE70020E4E70060ECE72DE9FF4F66
:1045F000002683B09B468A46040003D0BAF1000F20
:1046000008D011E0502080F31188BFF34F8FBFF323
:104610006F8FFEE7206C38B1502080F31188BFF314
:104620004F8FBFF36F8FFEE700F0E6FADFF82481CB
:104630004FF000094FF0805748B9059838B1502025
:1046400080F31188BFF34F8FBFF36F8FFEE7FFF743
:10465000CFFCA56B45B351462046E668FFF73CF911
:10466000BBF1000F13D0E660606A50B104F1240082
:1046700000F086FB28B1C8F80070BFF34F8FBFF37E
:104680006F8FFFF7D5FC012007B0BDE8F08F6D1EDE
:10469000A563206810B9FFF735FC60602069002829
:1046A000EFD004F11000E3E7059808B11EB106E071
:1046B000FFF7BEFC27E06846FFF74CFE0126FFF738
:1046C000B7FCFFF7E9FEFFF793FC94F94400401CA8
:1046D00001D184F8449094F94500401C01D184F83C
:1046E0004590FFF7A5FC05A9684600F023FA0028CD
:1046F00020460AD0FFF764FB00F07CFB2046FFF762
:1047000001FA0028A3D00020BEE7FFF7FBF9D8B1DB
:10471000206830B9FFF76CFC6068FFF79BFDFFF77E
:1047200087FC04F124000599FFF760FD2046FFF7A0
:1047300047FB00F05FFB002889D1C8F80070BFF389
:104740004F8FBFF36F8F82E72046FFF739FB00F0F2
:1047500051FB7CE704ED00E070B50D46040025D068
:10476000FFF746FCD4E90F20216802FB00116160CD
:104770000021A1632168A1600A46D4E90F01401E0F
:1047800000FB0121E16021464FF0FF3001F8440FAA
:10479000487004F110008DB1FFF7F8FB04F124001C
:1047A000FFF7F4FBFFF744FC012070BD502080F3BD
:1047B0001188BFF34F8FBFF36F8FFEE72169002988
:1047C000F0D000F0DDFA0028ECD004494FF0805022
:1047D0000860BFF34F8FBFF36F8FE3E704ED00E096
:1047E0002DE9FF4782B01D468A464FF000080400BD
:1047F00003D0BAF1000F08D011E0502080F31188E7
:10480000BFF34F8FBFF36F8FFEE7206C38B150209E
:1048100080F31188BFF34F8FBFF36F8FFEE7022D38
:104820000AD1E06B012807D0502080F31188BFF334
:104830004F8FBFF36F8FFEE700F0DEF93F4F4FF071
:1048400000094FF0805648B9049838B1502080F3E1
:104850001188BFF34F8FBFF36F8FFEE7FFF7C8FBE1
:10486000A06BE16B884207D3022D05D00498D0B12C
:10487000B8F1000F1AD01EE02A4651462046FFF735
:104880003EF8616A19B104F1240000F079FA20B110
:104890003E60BFF34F8FBFF36F8FFFF7C9FB01205F
:1048A00006B0BDE8F087FFF7C3FB22E06846FFF7DC
:1048B00051FD4FF00108FFF7BBFBFFF7EDFDFFF7E0
:1048C00097FB94F94400401C01D184F8449094F97A
:1048D0004500401C01D184F84590FFF7A9FB04A9CD
:1048E000684600F027F930B12046FFF769FA00F07A
:1048F00081FA0020D4E7FFF77BFBA06BE16B8842D5
:1049000013D1FFF795FB04F110000499FFF76EFC3B
:104910002046FFF755FA00F06DFA00289ED13E6060
:10492000BFF34F8FBFF36F8F98E7FFF781FB2046F0
:10493000FFF746FA00F05EFA90E7000004ED00E0B1
:104940002DE9F0471F4690468946040003D0B9F18F
:10495000000F08D011E0502080F31188BFF34F8F73
:10496000BFF36F8FFEE7206C38B1502080F31188C1
:10497000BFF34F8FBFF36F8FFEE7022F0AD1E06BBB
:10498000012807D0502080F31188BFF34F8FBFF369
:104990006F8FFEE7FFF79EFB5020EFF3118680F349
:1049A0001188BFF34F8FBFF36F8FA06BE16B88420D
:1049B00006D3022F04D0002086F31188BDE8F087CB
:1049C00094F945503A4649462046FEF798FF681C40
:1049D00004D06D1C84F845500120EDE7606A002882
:1049E000FAD004F1240000F0CBF90028F4D0B8F19B
:1049F000000FF1D00121C8F80010EDE770B50E46A8
:104A0000040009D0206C78B1502080F31188BFF3E6
:104A10004F8FBFF36F8FFEE7502080F31188BFF3F5
:104A20004F8FBFF36F8FFEE7206848B9606838B1D9
:104A3000502080F31188BFF34F8FBFF36F8FFEE7D5
:104A4000FFF748FB5020EFF3118580F31188BFF387
:104A50004F8FBFF36F8FA16BE06B884218D994F929
:104A60004500491CA163411C04D0401C84F845004A
:104A700001200EE0606A0028FAD004F1240000F062
:104A80007FF90028F4D0002EF2D001203060EFE74B
:104A9000002085F3118870BD2DE9F04790468946C6
:104AA000040003D0B9F1000F08D011E0502080F3CA
:104AB0001188BFF34F8FBFF36F8FFEE7206C38B1C3
:104AC000502080F31188BFF34F8FBFF36F8FFEE745
:104AD000FFF700FB5020EFF3118680F31188BFF33E
:104AE0004F8FBFF36F8FA76BF7B194F944504946CE
:104AF0002046FEF7F1FE7F1EA763681C04D06D1CE4
:104B000084F84450012010E020690028FAD004F114
:104B1000100000F035F90028F4D0B8F1000FF1D002
:104B20000121C8F80010EDE7002086F31188BDE8E8
:104B3000F087000070B50D46040019D005B3FFF7EB
:104B400057FA164AD1682868431C0FD02368126AA6
:104B5000934202D062688A421AD96268891A8142F5
:104B600016D2401A28602046FFF7F4FB002410E01C
:104B7000502080F31188BFF34F8FBFF36F8FFEE794
:104B8000502080F31188BFF34F8FBFF36F8FFEE784
:104B90000124FFF74DFA204670BD0000D000002030
:104BA0002DE9FF5F8346DDE90E87994616468A4662
:104BB0009000FFF73BF905001AD05420FFF736F9B3
:104BC000040012D025630021CDE90241CDE9008720
:104BD0004B46324651465846FEF70AFF2046FEF73E
:104BE000C3FD012004B0BDE8F09F2846FFF734FA6A
:104BF0004FF0FF30F6E700000548416919B1006B3E
:104C000018B1002070470120704702207047000053
:104C1000D00000200148C06870470000D00000208C
:104C20002DE9F0412E4C0027206B40B1A069401CBB
:104C3000A061E06900B101273846BDE8F081E6686F
:104C4000761CE66013D1606B006838B1502080F3A9
:104C50001188BFF34F8FBFF36F8FFEE7606BA16BBF
:104C60006163A063206A401C2062FFF70FF8A06A0E
:104C7000DFF87080864209D3606B006880B1606B9A
:104C8000C068C568686886420DD2A0622068C06AA4
:104C900000EB800158F821000128CAD90127C8E794
:104CA0004FF0FF30F1E7281DFFF75EF9A86A18B151
:104CB00005F11800FFF758F9E86A012122698140DF
:104CC0001143216100EB800108EB8100291DFFF7F2
:104CD00083F9E86A2168C96A8842CDD30127CBE706
:104CE000D0000020603D002070B504004FF00001AE
:104CF00040D0214D2868844207D0502080F311888D
:104D0000BFF34F8FBFF36F8FFEE7A06C38B1401E2B
:104D1000A064636CE26A9A422CD040B12AE0502031
:104D200080F31188BFF34F8FBFF36F8FFEE7201D15
:104D3000FFF71AF9114A012150B9E06A00EB80032C
:104D400052F8233023B92B6901FA00F083432B6119
:104D5000606CE062C0F10700A061E06A2B698140ED
:104D60001943296100EB800002EB8000211DFFF751
:104D700033F90121084670BDD0000020603D0020BD
:104D80002DE9F041C068C468ACB104F118000746D1
:104D9000FFF7EAF8154D286B0126A0B139461448F3
:104DA000FFF71AF9E06A2968C96A88421CD901200C
:104DB000EE61BDE8F081502080F31188BFF34F8F82
:104DC000BFF36F8FFEE7201DFFF7CEF8E16A2A6977
:104DD00006FA01F01043286101EB81000449B4395F
:104DE00001EB8000211DDBE70020E2E7D00000207E
:104DF000143E00202DE9F0472C4D00242746286B57
:104E000038B1FFF7F5F8286B401E2863286B40B1D6
:104E100046E0502080F31188BFF34F8FBFF36F8FB0
:104E2000FEE7A968224E0120D1B3A6F1B40980465D
:104E30003068E8B1F068C46804F11800FFF794F82E
:104E4000201DFFF791F8E06A2A6908FA00F1114382
:104E5000296100EB800109EB8100211DFFF7BCF8FF
:104E6000E06A2968C96A8842E2D3C5F81C80DFE796
:104E70000CB1FEF70BFFAC6944B14646FFF7D0FE1C
:104E800000B1EE61641EF9D10020A861E86938B173
:104E90000849012738070860BFF34F8FBFF36F8FB2
:104EA000FFF7C6F83846BDE8F0870000D0000020C4
:104EB000143E002004ED00E02DE9F041002704003D
:104EC00015D0FFF707F95020EFF3118580F3118813
:104ED000BFF34F8FBFF36F8F2046FEF745FF30B310
:104EE000154E306B58B104F1180114481DE05020E4
:104EF00080F31188BFF34F8FBFF36F8FFEE7E06A37
:104F00003168C96A884200D30127201DFFF72CF8B9
:104F1000E16A0120326988401043306101EB810071
:104F20000649B43901EB8000211DFFF755F885F3E0
:104F300011883846BDE8F081D0000020143E0020E2
:104F40002DE9F0470746994616460D462820DDF81C
:104F500020A0FEF76BFF04000ED0B8464F46D146A6
:104F60006DB1FEF769FC04F11801C4F8008081E816
:104F7000E002201DFFF715F82046BDE8F08750201D
:104F800080F31188BFF34F8FBFF36F8FFEE70000F0
:104F90001CB5FEF751FC0C48006860B10A490220BC
:104FA000091DCDE90001C201002308A10948FFF74E
:104FB000F7FD002807D1502080F31188BFF34F8FF1
:104FC000BFF36F8FFEE71CBD0C010020546D7220F3
:104FD000537663009D3D0008FEB51E461346020051
:104FE000089D4FF0000014D0124C2768002F0FD0FE
:104FF000CDE900130292062915DAFFF7FDFD02281C
:105000004FF000030DD0002269462068FFF7E8FB4F
:10501000FEBD502080F31188BFF34F8FBFF36F8F19
:10502000FEE72A46F0E70023324669463846FFF796
:1050300087FCFEBD0C010020000000000000000005
:10504000002F000000000700070000147F147F14E9
:1050500000242A7F2A12006264081323003649556F
:10506000225000000503000000001C224100000047
:1050700041221C000014083E08140008083E0808DD
:10508000000000A060000008080808080000606038
:105090000000002010080402003E5149453E000077
:1050A000427F4000004261514946002141454B3159
:1050B000001814127F10002745454539003C4A4925
:1050C0004930000171090503003649494936000697
:1050D0004949291E000036360000000056360000FF
:1050E000000814224100001414141414000041227A
:1050F000140800020151090600324959513E007C52
:105100001211127C007F49494936003E414141223B
:10511000007F4141221C007F49494941007F090924
:105120000901003E4149497A007F0808087F0000D4
:10513000417F4100002040413F01007F081422418F
:10514000007F40404040007F020C027F007F040847
:10515000107F003E4141413E007F09090906003EA3
:105160004151215E007F09192946004649494931CC
:105170000001017F0101003F4040403F001F2040EF
:10518000201F003F4038403F0063140814630007AD
:105190000870080700615149454300007F41410004
:1051A00000552A552A55000041417F0000040201A4
:1051B0000204004040404040000001020400002082
:1051C00054545478007F48444438003844444420C0
:1051D00000384444487F00385454541800087E096D
:1051E00001020018A4A4A47C007F08040478000035
:1051F000447D4000004080847D00007F10284400F2
:105200000000417F4000007C04180478007C080402
:10521000047800384444443800FC2424241800183E
:10522000242418FC007C080404080048545454202A
:1052300000043F444020003C4040207C001C2040B3
:10524000201C003C4030403C004428102844001CF6
:10525000A0A0A07C004464544C44141414141414EE
:10526000000000000000000000000000000000003E
:10527000000000F8000000000000003330000000D3
:1052800000100C06100C06000000000000000000DA
:1052900040C07840C0784000043F04043F0404004C
:1052A000007088FC08300000001820FF211E00005C
:1052B000F008F000E018000000211C031E211E0071
:1052C00000F00888700000001E21232419272110F7
:1052D00010160E000000000000000000000000009A
:1052E000000000E018040200000000071820400041
:1052F00000020418E0000000004020180700000031
:10530000404080F0804040000202010F0102020094
:10531000000000F0000000000101011F0101010078
:10532000000000000000000080B0700000000000DD
:105330000000000000000000000101010101010166
:1053400000000000000000000030300000000000FD
:1053500000000000806018040060180601000000D2
:1053600000E010080810E000000F102020100F00CF
:10537000001010F8000000000020203F2020000056
:1053800000700808088870000030282422213000AE
:1053900000300888884830000018202020110E00B6
:1053A0000000C02010F8000000070424243F24005F
:1053B00000F80888880808000019212020110E0034
:1053C00000E0108888180000000F112020110E0046
:1053D00000380808C83808000000003F000000003E
:1053E0000070880808887000001C222121221C00FF
:1053F00000E010080810E0000000312222110F0028
:10540000000000C0C00000000000003030000000BC
:10541000000000800000000000008060000000002C
:105420000000804020100800000102040810200045
:105430004040404040404000040404040404040090
:105440000008102040800000002010080402010025
:10545000007048080808F000000000303601000025
:10546000C030C828E810E0000718272423140B00D8
:105470000000C038E0000000203C23020227382052
:1054800008F8888888700000203F202020110E0036
:10549000C03008080808380007182020201008002D
:1054A00008F808080810E000203F202020100F0016
:1054B00008F88888E8081000203F202023201800E2
:1054C00008F88888E8081000203F2000030000004A
:1054D000C03008080838000007182020221E0200EB
:1054E00008F808000008F808203F210101213F20AA
:1054F000000808F8080800000020203F20200000D5
:1055000000000808F8080800C08080807F000000C4
:1055100008F888C028180800203F200126382000FD
:1055200008F8080000000000203F20202020300064
:1055300008F8F800F8F80800203F003F003F20007E
:1055400008F830C00008F808203F200007183F0086
:10555000E01008080810E0000F10202020100F00B5
:1055600008F808080808F000203F210101010000A8
:10557000E01008080810E0000F18242438504F00ED
:1055800008F8888888887000203F2000030C3020AD
:1055900000708808080838000038202121221C00EB
:1055A000180808F8080818000000203F2000000034
:1055B00008F808000008F808001F202020201F001D
:1055C0000878880000C83808000007380E0100007D
:1055D000F80800F80008F800033C0700073C030047
:1055E000081868808068180820302C03032C3020AD
:1055F0000838C800C83808000000203F200000001C
:1056000010080808C8380800203826212020180073
:10561000000000FE020202000000007F4040400047
:10562000000C30C000000000000000010638C0007F
:1056300000020202FE000000004040407F00000027
:10564000000004020202040000000000000000004C
:10565000000000000000000080808080808080804A
:105660000002020400000000000000000000000032
:1056700000008080808000000019242222223F2028
:1056800008F8008080000000003F112020110E006B
:105690000000008080800000000E112020201100FA
:1056A000000000808088F800000E112020103F20AC
:1056B0000000808080800000001F22222222130030
:1056C000008080F0888888180020203F202000007B
:1056D0000000808080808000006B94949493600030
:1056E00008F8008080800000203F210000203F203B
:1056F00000809898000000000020203F202000003B
:10570000000000809898000000C08080807F00002A
:1057100008F8000080808000203F24022D30200007
:10572000000808F8000000000020203F20200000B2
:105730008080808080808000203F20003F20003FCC
:105740008080008080800000203F210000203F20DA
:105750000000808080800000001F202020201F008B
:10576000808000808000000080FFA12020110E00BA
:105770000000008080808000000E112020A0FF80AB
:10578000808080008080800020203F212000010058
:1057900000008080808080000033242424241900AD
:1057A000008080E0808000000000001F20200000BA
:1057B0008080000000808000001F202020103F20FB
:1057C000808080000080808000010E30080601008B
:1057D00080800080008080800F300C030C300F0030
:1057E00000808000808080000020312E0E3120005B
:1057F000808080000080808080818E70180601008B
:1058000000808080808080000021302C22213000A8
:1058100000000000807C020200000000003F4040C9
:1058200000000000FF00000000000000FF0000007A
:105830000002027C800000000040403F00000000A9
:105840000006010102020404000000000000000044
:105850000000000000000000000000000000000048
:105860000000000000000000000000000000000038
:105870000000000000000000000000000000000028
:105880000000000000000000000000000000000018
:105890000000000000000000000000000000000008
:1058A00000000000000000000080400080A0808018
:1058B000E0C0D0D0C8F064A890EAA46040400020C6
:1058C00000000000000000000000000000000000D8
:1058D00000000000000000000000000000000000C8
:1058E00000000000000000000000000000000000B8
:1058F00000000000000000000000000000000000A8
:105900000000000000000000000000008000800097
:105910000000200000C100ACE5F2DEEFFFFF7D3D9E
:105920005DFDFF3FFFFFFFFFFFFFFFFFFFFCFFF8F5
:10593000E082000000000000000000000000000005
:105940000000000000000000000000000000000057
:105950000000000000000000000000000000000047
:105960000000000000000000000000000000000037
:10597000000000000000000000002020007804204B
:1059800040491C8B0A68557F7F07063F1F7F0380B5
:1059900001808083809FC7FF7F3F1D0F07996FFFA6
:1059A000FFC64300000000000000000000000000EF
:1059B00000000000000000000000000000000000E7
:1059C00000000000000000000000000000000000D7
:1059D00000000000000000000000000000000000C7
:1059E0000000008080E0E0E1E1E0C0C0000302626E
:1059F000250084D875119DEE18F8FEFCF8E4C387E5
:105A0000830101000000000110080000020C8778EB
:105A1000FDFFFF000000000000000000000000008B
:105A20000000000000000000000000000000000076
:105A3000000000000030206060E0E0E0E0E0E0F026
:105A4000F0F0F070707878787C7C7C7CFCFEFEFF57
:105A5000FFFFFFFFBFFF2F6FCFFFFFFFFFDFFF0045
:105A6000FB0864C085D2B0BCB33F57D39BF1280775
:105A700007070301008080F0B8783020202018F755
:105A8000FFFD1F01000000000000000000000000FA
:105A90000000000000000000000000000000000006
:105AA00000000000000000000000000000000001F5
:105AB000010180C0E0E0F0F8FCFCFEFF7F3F1F0F1B
:105AC0000707070F1F3F7F7FFFEFFFFFFFFFFF87E6
:105AD0003EC7FFFCA7FFFE7FBFBFBE9C0F8FC7DE88
