:020000040800F2
:100000009031002099010008D71E00084D18000803
:10001000D51E00087B070008652A000800000000C4
:1000200000000000000000000000000001010008C6
:10003000FD07000800000000450100083528000801
:10004000B3010008B3010008B3010008B3010008C0
:10005000B3010008B3010008B3010008B3010008B0
:10006000B3010008B3010008B3010008B3010008A0
:10007000B3010008B3010008B3010008B301000890
:10008000B3010008B3010008B3010008B301000880
:10009000B3010008B3010008B3010008B301000870
:1000A000B3010008B3010008B3010008B301000860
:1000B000B3010008B3010008B3010008B301000850
:1000C000B3010008B3010008B3010008B301000840
:1000D000B3010008B3010008B3010008B301000830
:1000E000B3010008B3010008B3010008DFF80CD029
:1000F00000F06CF900480047BD2C0008903100204A
:10010000224B19680868B0E8F00F80F30988BFF344
:100110006F8F4FF0000080F311884EF00D0E704786
:100120000000000006480068006880F3088862B696
:1001300061B6BFF34F8FBFF36F8F00DF00BF00BF0B
:1001400008ED00E0EFF30980BFF36F8F0F4B1A68E3
:1001500020E9F00F106008B54FF0500080F31188CF
:10016000BFF34F8FBFF36F8F03F0B6FD4FF000006A
:1001700080F31188BDE8084019680868B0E8F00FFE
:1001800080F30988BFF36F8F704700BF7C000020A9
:10019000EFF3058070470000064880470648004797
:1001A000FEE7FEE7FEE7FEE7FEE7FEE7FEE7FEE727
:1001B000FEE7FEE7AD280008ED00000840EA010375
:1001C0009B0703D009E008C9121F08C0042AFAD20D
:1001D00003E011F8013B00F8013B521EF9D27047D1
:1001E000D2B201E000F8012B491EFBD27047002279
:1001F000F6E710B513460A4604461946FFF7F0FF26
:10020000204610BD10B5002200E0521C835C8C5CBF
:10021000A34201D1002BF8D1D8B2E1B2401A10BDEF
:100220000FB400B58DB010A909900B9000914FF05C
:10023000FF300A9000200C90054806900548079072
:100240006A4609A80F9900F093F80DB05DF814FB09
:100250008D030008AB0300082DE9FF5FD2E901A779
:100260004FF00008916999461446DDF838B04646CB
:1002700001988847054659EA0B0005D009E0A169B5
:10028000761C019888470546216A28468847002839
:10029000F5D1681C03D05FEACA7005D015E04FF0B5
:1002A000FF3004B0BDE8F09F2068011D2160D0F848
:1002B00000800AE05FEACA7001D108F8015BA16919
:1002C000761C7F1E019888470546002F1ADD681CA2
:1002D00018D0B9F1000F0DD0E81705EBD06042112E
:1002E00020F01F0059F822102A1A012090400142E4
:1002F000E0D107E0BBF1000FDCD1216A2846884736
:100300000028D7D0E16901988847BBF1000F07D1D9
:10031000002E05DD5FEACA7002D1002188F80010C6
:10032000A068B84203DDBBF1000F03D017B16FF036
:100330000100B6E73046B4E730B50B460146002071
:100340002022012409E021FA02F59D4205D303FA97
:1003500002F5491B04FA02F52844151EA2F1010218
:10036000F1DC30BD02681144137801601846704713
:10037000D1600449516104491162002111611146A3
:1003800000F03CB865030008F1030008426842B180
:10039000016811F8013B23B1521EC0E90012184652
:1003A00070470121C160881E704742685AB1C36816
:1003B000016843B983688B4205D0491E521CC0E9CD
:1003C0000012002070474FF0FF307047064C074D79
:1003D00006E0E06840F0010394E807009847103415
:1003E000AC42F6D3FFF786FEC4540008E45400087C
:1003F000C0B24FF4F05100F097B900002DE9F34F6F
:100400008BB04FF0000801F10C000C464FF0010BCF
:1004100046460DF1080A0190626901210198904752
:10042000051E2DD0252D2CD0216A8847C0B16269C8
:10043000012101989047216A88470028F7D1411E81
:1004400062690198904700E0761CA1690B98884783
:10045000216A88470028F7D1E1690B988847DBE7D4
:10046000A1690B9888470746A84201D1761CD3E7BB
:10047000E1690B9888477F1C02D1B8F1000F6FD05B
:1004800046E1002762693D463946019890472A288F
:1004900004D162690121019890470125DFF8849217
:1004A0006269012101989047A0F130010A290AD21E
:1004B0004F45E5DC07EB870100EB4107303FDFD418
:1004C00045F01005ECE7E90601D46FF000476C2811
:1004D0000AD04C2814D0682815D06A280DD074286A
:1004E0001CD07A281AD01DE062690121019890473A
:1004F0006C2802D045F0040514E045F002050DE03B
:1005000045F020050AE062690121019890476828BA
:1005100002D045F0080505E045F400656269012157
:1005200001989047C4E9015765283DD019DC582847
:100530007AD00CDC452837D004DC252826D0412889
:1005400031D131E046282FD047282CD12CE05B2830
:1005500077D0612828D063287CD0642823D15AE042
:10056000D0E06F2848D008DC66281DD067281BD053
:10057000692821D06E2816D127E0702845D073282D
:1005800068D0752847D078280DD14DE0A1690B9827
:100590008847054625283FF469AFE1690B988847ED
:1005A0006D1C3FF46AAFB3E023466A466FF001006A
:1005B0000B99AFF300809EE045F040006060A80713
:1005C00023464FF0000236D43EE0E8077FF447AF01
:1005D0002068011D21600068290501D506701BE710
:1005E000290701D5068017E7A90703D5F117C0E948
:1005F000006111E706600FE745F040006060A80762
:1006000023464FF0080216D41EE040F60E0125EAFC
:100610000100606016E045F040006060A8072346D6
:100620004FF00A0207D40FE045F040006060A807D1
:1006300008D5234610226FF001000B99AFF300801C
:1006400059E007E0234610226FF001000B99AFF349
:10065000008050E04FF000094F464B46632802D01F
:100660005B2806D040E0E80601D40120A060012705
:100670003AE062690121019890475E2805D14FF068
:1006800001096269494601989047216939B90021F9
:100690000A46534643F82120491C0829FADBB0B327
:1006A000216969B9C11700EBD16253110AEB8301CB
:1006B00022F01F02821A01200B68904003430B6056
:1006C00062690121019890475D28E8D1B9F1000FD6
:1006D00009D00020514651F82020D24341F8202073
:1006E000401C0828F7DB02AB224600976FF00100A0
:1006F0000B99FFF7B1FD00280CDA401C08D1BBF1C3
:10070000000F05D04FF0FF300DB0BDE8F08FFFE7D0
:100710004046F9E7E90701D108F1010806444FF026
:10072000000B79E6CCCCCC0C7F2801D9002208E064
:10073000064A02EB5002C007127800D1120902F0FB
:100740000F02012090400840704700004C54000800
:1007500010B5C0070AD0142001F0F4FE80070BD1B9
:100760000321BDE81040142001F080BF0321BDE843
:100770001040142000F036B810BDFEE770472DE998
:10078000F0410E46074615460421052000F02AF8E0
:100790000021012002F068F980210A2001F066FFA3
:1007A000002405E0395D092002F05EF9641CE4B222
:1007B000B442F7D30321012002F056F9FF240520AB
:1007C00001F0C0FE641E14F0FF0401D04007F6D50E
:1007D000222001F0B7FE2870212001F0B3FE6870DE
:1007E000BDE8F08170B50C46054601F0ABFE20EA8D
:1007F00004012846BDE8704002F036B97047000099
:1008000070B53B4D0024C0B301220821284600F0FA
:100810007DF900220721284600F078F90A2002F02D
:10082000ADFA01220421284600F070F900220B21C4
:10083000284600F06BF90A2002F0A0FA01220221FA
:10084000284600F063F900220D21284600F05EF9E9
:100850000A2002F093FA01221146284600F056F9C8
:1008600000220E21284600F051F90A2002F086FAF3
:10087000641CE4B2642CC7D370BDFFE701221146AB
:10088000284600F043F900220E21284600F03EF9E8
:100890000A2002F073FA01220221284600F036F9FC
:1008A00000220D21284600F031F90A2002F066FAF4
:1008B00001220421284600F029F900220B212846B4
:1008C00000F024F90A2002F059FA012208212846F2
:1008D00000F01CF900220721284600F017F90A2031
:1008E00002F04CFA641CE4B2642CC7D3C4E70000E5
:1008F000000801402DE9F0410024069F2146002018
:1009000001F018FCC4EB04100025C0EBC4167019EC
:10091000385C01F035FC6D1CEDB2802DF7D3641C02
:10092000E4B2082CEAD3BDE8F081000070B50446BB
:1009300000F0F2F80546601C02D004480078044438
:1009400000F0EAF8401BA042FAD370BD4800002036
:100950002DE9F84FDFF890A100220AF1040B1446AC
:1009600001274FF00F090BF1040E00BF0B6807FAC7
:1009700004F52B40AB4274D1DFF870C14E68A6EB92
:100980000C0866452BD00DDC032E34D005DC36B3C5
:10099000012E19D0022E2FD11BE0112E16D0122EAF
:1009A0002AD119E0B8F5881F19D006DCB8F5803FC8
:1009B00015D0B8F5801F1FD111E0B8F5001F0ED07B
:1009C000B8F5041F18D10AE0CA6815E0CA68121DFC
:1009D00012E0CA6808320FE0CA680C320CE08A687C
:1009E0002AB1012A4FF0080203D0456104E0042235
:1009F00002E0056100E00022FF2B01D8064601E07D
:100A000000F104064FEA840501D9A5F12005D6F8C6
:100A100000C009FA05F82CEA080C02FA05F54CEAC0
:100A2000050CC6F800C04D68ED0057D5304DAE69D5
:100A300046F00106AE61AD6924F0030605F001053C
:100A400000952C4D06EB050CDCF80850A6074FEA84
:100A5000167809FA08F6B543274EB04202D10026AF
:100A600010E03BE0254EB04201D101260AE0244EC1
:100A7000B04201D1022605E0224EB04201D1032648
:100A800000E0042606FA08F62E43CCF808604D680C
:100A9000DAF80060ED03554601D51E4300E09E43A1
:100AA0002E604D68DBF80060AD035D4601D51E4346
:100AB00000E09E432E604D68DEF80060ED02754652
:100AC00001D51E4300E09E432E604D68AD020E4DE1
:100AD0002E6801D51E4300E09E432E60641C102C3E
:100AE000FFF444AFBDE8F88F00040140000011108E
:100AF000001002400000014000080140000C0140CD
:100B000000100140001401400C0401400AB10161D1
:100B100070470904FBE70000014880687047000047
:100B20004800002070B504001BD094F83D0000255B
:100B300020B984F83C50204600F032F9242084F893
:100B40003D002068016821F00101016000F0CCFA4D
:100B5000404A6168914201D83F4900E03F498842DC
:100B600001D2012070BD3E492368B0FBF1F159600C
:100B70006368934206D94FF4967359434FF47A73DE
:100B8000B1FBF3F12368491C19626168914210D8E6
:100B90004900401EB0FBF1F2521CC2F30B02042AC2
:100BA00001D2042022E0B0FBF1F0401CC0F30B00A6
:100BB0001CE0A368CBB301EBC10202EB0116421E9D
:100BC000B2FBF6F2521C42F48042120536D06BB3EF
:100BD00001EBC10202EB0111401EB0FBF1F0401C21
:100BE000C0F30B0040F4804040F400402168C8612D
:100BF000D4E90701084321680860D4E903100843D9
:100C000021688860D4E9050108432168C86020682C
:100C1000016841F0010101602564202084F83D0055
:100C2000256384F83E50002070BD00E008E001EB31
:100C30004106421EB2FBF6F2521CC6E70120D5E780
:100C400001EB4101401EB0FBF1F0401CC0F30B0072
:100C5000CAE70000A086010080841E0000093D0054
:100C600040420F002DE9FF4F83B09A46DDE911871E
:100C700093460446DDF84090FFF74EFF064694F891
:100C80003D0020287DD119230122434920460096AA
:100C900000F069FE00287CD194F83C00012878D04F
:100CA000012084F83C0020680168C90703D101686D
:100CB00041F0010101602068016821F400610160D8
:100CC000212084F83D00402084F83E000025256462
:100CD000C4F82490A4F82A803048E062608D208512
:100CE000CDE9007653465A462046049900F0C4FDEB
:100CF00080B3206C84F83C50042848D008E0324689
:100D00003946204600F0A4FE30B1206C042839D0CA
:100D1000032007B0BDE8F08F606A411C6162216862
:100D200000780861208D401E80B22085618D491EAB
:100D3000618521684A69D24352070BD468B1606A61
:100D4000421C626200780861208D401E2085608D03
:100D5000401E6085208D0028D1D13246394620467C
:100D600000F0DAFD0028D0D154F83D0B016841F4C1
:100D700000710160202004F81E09E57765770020E6
:100D8000C7E706E02068016841F4007101600120B6
:100D9000BFE70220BDE70000020010000000FFFFD7
:100DA00030B51A4D0168122203231948194C85B039
:100DB000A94215D11902CDE9001203936946FFF744
:100DC000C7FD1548416841F0E06141F00201416012
:100DD000E06940F40010E061E06900F4001011E007
:100DE0000E4DA9420FD14FF44061CDE9001203939B
:100DF0006946FFF7ADFDE06940F48000E061E0691D
:100E000000F48000049005B030BD000000540040A4
:100E1000000C01400010024000000140005800405A
:100E200002488168027811448160704748000020C0
:100E3000074810B5016841F010010160032000F07F
:100E400091F80F2000F006F800F024F8002010BD03
:100E50000020024070B50D4D04464FF47A71287899
:100E6000B1FBF0F00A490968B1FBF0F000F07CFC3E
:100E700048B9102C07D200222146501E00F052F82B
:100E800000206C6070BD012070BD00004800002093
:100E900054000020214808B5816941F001018161B9
:100EA000816901F001010091C16941F08051C16186
:100EB000C06900F080500090032000F053F8002239
:100EC00011466FF00B0000F02DF8002211466FF074
:100ED0000A0000F027F8002211466FF0090000F028
:100EE00021F800221146501F00F01CF80022114684
:100EF000101F00F017F800220F21901E00F012F8CA
:100F000000220F21501E00F00DF80548416821F025
:100F1000E06141F00071416008BD00000010024036
:100F200000000140F0B40E4B1B680C46C3F30223D3
:100F3000C3F10705042D00D90425191D072901D285
:100F4000002300E0DB1E012606FA05F1491E2140C0
:100F500099409E40761E16403143F0BC00F0BCBF65
:100F60000CED00E0064900F0070208684FF6FF03A9
:100F7000184040EA0220034A10430860704700000E
:100F80000CED00E00000FA052DE9F047DFF83C81A8
:100F900005460E46D8F8000000F00700B0420CD21B
:100FA000D8F8001021F007013143C8F80010D8F834
:100FB000000000F00700B04263D12878444C80075D
:100FC00005D56068A96820F0F000084360602878C3
:100FD000C00745D06868012816D02168022816D0BD
:100FE000890700294DDA616821F00301014361603E
:100FF000FFF792FD6968074641F2883001290FD05A
:101000000229814619D027E021688903E9E789018F
:10101000E7E700BFFFF780FDC11B494501D918E094
:1010200081466068C0F381000128F3D118E000BF59
:10103000FFF772FDC11B49450BD86068C0F3810002
:101040000228F5D10CE000BFFFF766FDC11B494542
:1010500002D90320BDE8F087606810F00C0FF3D1CF
:10106000D8F80010404601F00701B1420BD90168E1
:1010700021F0070131430160006800F00700B04231
:1010800001D00120E6E72878400705D56068E968C7
:1010900020F4E060084360602878000706D56068A7
:1010A000296920F4605040EAC100606000F03CF81B
:1010B0006168084AC1F30311515CC84006490860E1
:1010C0000F20FFF7C7FE0020C4E700000020024009
:1010D0000010024034540008540000200148006809
:1010E0007047000054000020044805490068496822
:1010F000044AC1F30221515CC840704754000020EB
:10110000001002404454000804480549006849683A
:10111000044AC1F3C221515CC8407047540000200A
:10112000001002404454000812A185B00FC98DE898
:101130000F0014A0144A006804905168134801F08D
:101140000C03042B10D0082B0ED1C1F38343C90329
:101150001DF803000AD5516804AAC1F34041515C4F
:101160000A4A5043B0FBF1F005B0704708494843C4
:10117000FAE7000002030405060708090A0B0C0D34
:101180000E0F1010010200000010024000127A0041
:1011900000093D002DE9F84F04460078B94DC0071D
:1011A00048D06868C0F38100012807D06868C0F3A0
:1011B0008100022809D16868C00306D52868800329
:1011C00038D5606800286FD034E06068B0F5803FA3
:1011D0000BD010B1B0F5A02F11D0286820F48030CA
:1011E0002860286820F4802002E0286840F48030DD
:1011F0002860606888B1FFF78FFC064609E0286820
:1012000040F480202860F0E7FFF786FC801B64280C
:1012100075D828688003F7D50CE0FFF77DFC0646FB
:1012200005E000BFFFF778FC801B6428F0D8286831
:101230008003F7D42078944E80074FF001094FF0D7
:1012400000083BD5686810F00C0F07D06868C0F341
:101250008100022809D16868C00306D42868800785
:1012600014D5206901281FD110E02069B0B1C6F85B
:101270000090FFF751FC074605E000BFFFF74CFC6C
:10128000C01B0228C4D828688007F7D52868616980
:1012900020F0F80040EAC10028600FE0C6F80080A6
:1012A000FFF73AFC074606E0E9E000BFFFF734FC31
:1012B000C01B022823D828688007F7D420780007AD
:1012C0002CD57248A169D9B1C0F80090FFF724FC71
:1012D000074604E0FFF720FCC01B02280FD8686A0D
:1012E0008007F7D56A484FF4FA510068B0FBF1F077
:1012F000009000BF0098411E0091FAD20EE080E0FD
:10130000C0F80080FFF708FC074604E0FFF704FC84
:10131000C01B022875D8686A8007F7D42078400778
:1013200060D5E8690027C00008D4E86940F0805023
:10133000E861E869012700F0805000905548016895
:10134000C90513D40168834641F480710160FFF739
:10135000E3FB824606E000BFFFF7DEFBA0EB0A00DE
:1013600064284ED8DBF80000C005F5D5E0680128F8
:101370000AD008B1052813D0286A20F0010028629D
:10138000286A20F0040002E0286A40F00100286288
:10139000E06841F2883B98B1FFF7BEFB82460BE064
:1013A000286A40F004002862EEE700BFFFF7B4FBB4
:1013B000A0EB0A0159455AD8286A8007F6D50CE0F7
:1013C000FFF7AAFB824605E0FFF7A6FBA0EB0A01A8
:1013D00059454CD8286A8007F6D41FB1E86920F037
:1013E0008050E861E06988B36968C1F3810102292E
:1013F00045D00228C6F8608004D0FFF78DFB044674
:1014000038E034E0FFF788FB074604E0FFF784FB91
:10141000C01B02282BD828688001F7D4206AB0F5B9
:10142000803F05D16868A16820F4003008436860F7
:10143000D4E908010843696821F47411084368601D
:10144000C6F86090FFF768FB044606E015E000BFB1
:10145000FFF762FB001B022809D828688001F7D536
:101460000BE000BFFFF758FB001B022802D9032046
:10147000BDE8F88F28688001F4D40020F8E7012047
:10148000F6E70000001002400000424280044242A1
:10149000540000200070004070B5040005D0002505
:1014A000A56294F8510010B104E0012070BD2046FF
:1014B00000F034F8022084F851002068016821F01F
:1014C00040010160D4E901010843D4E9031211434A
:1014D000084361690843218B01F400710843E16905
:1014E0000843216A0843A16A084321680860A0698B
:1014F000042101EA1040616A0843216848602168BC
:10150000E06A08612068C16921F40061C161656514
:10151000012084F85100002070BD000010B5006863
:10152000124986B088421ED11148C16941F48041F8
:10153000C161C0690F4C00F4804004904FF420401A
:101540000090022001900320039069462046FFF797
:10155000FFF900214FF48040CDE900010291694676
:101560002046FFF7F5F906B010BD00000038004036
:1015700000100240000C01402DE9F84F044690F89D
:10158000500000260A9F9A4693460D464FF00108E8
:1015900001280ED0012084F85000FFF7BDFA8146E3
:1015A00094F85100616801280CD0B1F5827F07D111
:1015B00002E00220BDE8F88FA16809B9042801D033
:1015C0000226BDE055B1BBF1000F07D0BAF1000F04
:1015D00004D094F85100012802D004E00126AFE0C5
:1015E000052084F8510000206065C4F838B0A4F8E4
:1015F0003EA0A4F83CA02563A4F836A0A4F834A02B
:101600002064606420680168490603D4016841F0E1
:1016100040010160E068B0F5006F606804D0E8B395
:10162000E08E01283BD06AE010B1E08E01282ED177
:10163000216835F8020BC860E08E401EE08626E087
:10164000B8F1000F0DD0E08E58B12068816889078D
:1016500007D535F8021BC160E08E401EE0864FF0D2
:101660000008E08F58B120688168C90707D0C068BA
:101670002BF8020BE08F401EE0874FF00108781C2A
:1016800005D0FFF749FAA0EB0900B84246D2E08E38
:101690000028D5D1E08F0028D2D136E0FFE72168BD
:1016A00015F8010B0873E08E401EE08627E000BFAE
:1016B000B8F1000F0DD0E08E58B12068816889071D
:1016C00007D515F8011B0173E08E401EE0864FF030
:1016D0000008E08F58B120688168C90707D0C0684A
:1016E0000BF8010BE08F401EE0874FF00108781CDB
:1016F00005D0FFF711FAA0EB0900B8420ED2E08E38
:101700000028D5D1E08F0028D2D13B46012202210A
:101710002046CDF8009000F049FF08B103260FE005
:101720004A463946204600F031FF18B101262020F4
:10173000606505E0A06818B92068C16880680090FD
:10174000012084F85100002084F85000304631E731
:101750004FF0E0210428086903D020F0040008615C
:10176000704740F00400FAE710B5401EB0F1807FEA
:1017700001D3012010BD4FF0E02460610F216017FC
:1017800000F0AAFB0020A06107202061002010BD0E
:1017900070B5040004D094F83900002510B106E0BB
:1017A000012070BD84F83850204600F023F8242032
:1017B00084F839002068C16821F40051C1602046D6
:1017C00001F098F82068016921F4904101612068D6
:1017D000416921F02A0141612068C16841F400514A
:1017E000C160E563202084F8390084F83A000020C5
:1017F00070BD000010B50068114986B088421DD147
:101800001048816941F48041816180690E4C00F487
:10181000804004904FF4007000900220019003205B
:10182000039069462046FFF793F800212015CDE983
:101830000001029169462046FFF78AF806B010BD04
:10184000003801400010024000080140FEE7016836
:101850004A69D24352050CD46FF480624A61042174
:101860000164002140F8301F2022427301730120DF
:1018700070470020704700002DE9F84304460068D7
:101880000D46DDE9089701689846164641F48071D7
:1018900001604B4600224FF001112046009700F0F6
:1018A00062F8E8B9216805F0FE0008613B464A4647
:1018B0001849204600F088F828B1206C04280FD180
:1018C0000120BDE8F88320684169806900903A46AC
:1018D0004946204600F0BCF820B1206C042813D003
:1018E0000320EEE7F5B2B8F1010F09D02168300A04
:1018F00008613A464946204600F0AAF80028ECD193
:10190000206805610020DCE72068016841F400716F
:101910000160D5E70200010070B516460D46044689
:101920001AE02046FFF793FF08B1012070BD681C44
:1019300012D025B1FFF7F0F8801BA8420CD954F85B
:10194000400F40F0200044F81009002020602021C2
:1019500061732073032070BD20684069C043400755
:10196000DFD4002070BD2DE9F0471E4690460D469D
:101970000446C1F30747DDF8209012E0701C10D038
:101980002EB1FFF7C9F8A0EB0900B04209D9002039
:1019900044F8300F20216173A07320730320BDE849
:1019A000F0872068012F0AD0806925EA0000000432
:1019B000000C06D000214145E0D00020EFE740694F
:1019C000F3E70121F7E700002DE9F0479A46914639
:1019D0000D46044600264FF02008C1F307472AE0D1
:1019E00020684069C043400512D42068016841F472
:1019F0000071016021686FF48060486104202064F8
:101A0000266384F83D8084F83C600120BDE8F087BF
:101A1000B9F1FF3F0FD0B9F1000F05D0FFF77CF807
:101A2000A0EB0A01494506D944F8306F84F80D80CF
:101A300026730320EAE72068012F07D0D0F81800AA
:101A400025EA00000004000CE0D0C9E74069F7E790
:101A500070B516460D4604461AE02046FFF7F7FE1D
:101A600008B1012070BD681C12D025B1FFF754F8F1
:101A7000801BA8420CD954F8400F40F0200044F8D5
:101A8000100900202060202161732073032070BDA5
:101A900020684069C0430006DFD4002070BD10B547
:101AA00000F040F80120FEF753FE0520FEF73EFF50
:101AB0000020FEF74DFE08210846FEF793FE3D216B
:101AC000112000F0D1FF8621172000F0CDFF7F21EB
:101AD000262000F0C9FF1E212D2000F0C5FF0021A7
:101AE0002C2000F0C1FF8D212A2000F0BDFF3E21F7
:101AF0002B2000F0B9FF0220FEF718FF2A2000F08B
:101B000021FD0520FEF712FF0120FEF721FE2A200D
:101B100000F018FD2B2000F015FDBDE810406420FA
:101B2000FEF704BF70B50122294D14032146284653
:101B3000FEF7ECFF0A20FEF7F9FE002221462846B8
:101B4000FEF7E4FF0A20FEF7F1FE012221462846B7
:101B5000FEF7DCFF0A20FEF7E9FE0F21012000F06E
:101B600083FF0F21012000F07FFFC820FEF7DEFE7B
:101B70003D21112000F078FF0520FEF7D7FE1E2141
:101B80002D2000F071FF0520FEF7D0FE00212C2053
:101B900000F06AFF0520FEF7C9FE8D212A2000F023
:101BA00063FF0520FEF7C2FE7F21262000F05CFFC8
:101BB0000520FEF7BBFE3E212B2000F055FF05203F
:101BC000FEF7B4FE4021152000F04EFF002070BD4E
:101BD0000008014030B5A1B0002501211CA81C95CA
:101BE00001F0ADF92B4C0121A0611DA81D9501F05C
:101BF000A6F9294DE061002228681E9001211EA847
:101C000001F02EFA60611422291D6846FEF7D6FA0B
:101C10000021684601F00CFA2060142205F1180139
:101C200005A8FEF7CBFA002105A801F001FA6060D3
:101C3000142205F12C010AA8FEF7C0FA00210AA817
:101C400001F0F6F9A060142205F140010FA8FEF79B
:101C5000B5FA00210FA801F0EBF9E060142205F1BC
:101C6000540114A8FEF7AAFA002114A801F0E0F923
:101C70002061D5E91A01CDE919011FA81B900021A7
:101C800019A801F087F820621021E06901F092F9AB
:101C900021B030BD24000020C05300082DE9F047DA
:101CA000344886B0816941F010018161816901F099
:101CB00010010491816941F020018161816901F085
:101CC00020010491816941F004018161816901F081
:101CD00004010491816941F0080181618069012258
:101CE00000F00800DFF8908054030490214640463D
:101CF000FEF70CFFDFF8849041F20F060022314618
:101D00004846FEF703FF0122DFF874A017033946A7
:101D10005046FEF7FBFE0094012403256946404629
:101D20000194CDE90245FEF713FE022000960395CB
:101D3000CDE9014069464846FEF70AFECDE9007448
:101D400069465046CDE90245FEF702FEE002002555
:101D5000CDE90005694602944846FEF7F9FDC0202A
:101D6000CDE90005694650460295FEF7F1FD06B043
:101D7000BDE8F0870010024000100140000801405B
:101D8000000C01400E4810B50C4901600D4941603E
:101D900000214FF480428160C0E9031241618161FA
:101DA000C1610162FEF7BEFE002805D0BDE810400B
:101DB0004D2105A000F07EBE10BD00000054004083
:101DC000F4000020A08601002E2E2F5372632F698D
:101DD00032632E63000000000E4810B50C4901600C
:101DE0000D49416000214FF480428160C0E9031237
:101DF00041618161C1610162FEF794FE002805D056
:101E0000BDE81040602105A000F054BE10BD0000E8
:101E10000058004048010020A08601002E2E2F53BC
:101E200072632F6932632E6300000000114810B501
:101E30000F4901604FF482714160002102228160EC
:101E4000C0E9031201224261520282610822C0E904
:101E50000721416281620A21C162FFF71DFB002850
:101E600005D0BDE810404F2103A000F023BE10BDF7
:101E7000003800409C0100202E2E2F5372632F73D8
:101E800070692E63000000000D4810B50B49016019
:101E90004FF4E1314160002181600C22C160C0E952
:101EA00004128161C161FFF773FC002805D0BDE811
:101EB00010404C2103A000F0FDBD10BD00380140D2
:101EC000F40100202E2E2F5372632F7573617274EC
:101ED0002E630000FEE770470907090E002806DAA6
:101EE00000F00F0000F1E02080F8141D704700F1B1
:101EF000E02080F80014704770B506465FF00004DB
:101F000004F1B000C0B200F029F9012000F026F978
:101F1000102000F023F90025304600F031F96D1C47
:101F2000EDB2802DF8D3641CE4B2082CE8D370BD68
:101F300008B5AE2000F012F9202000F00FF91020B3
:101F400000F00CF9B02000F009F9C02000F006F90B
:101F5000002000F003F9102000F000F9402000F00C
:101F6000FDF8812000F0FAF8FF2000F0F7F8A0203B
:101F700000F0F4F8A62000F0F1F8A82000F0EEF848
:101F80003F2000F0EBF8A42000F0E8F8D32000F0A8
:101F9000E5F8002000F0E2F8D52000F0DFF8F020AE
:101FA00000F0DCF8D92000F0D9F8222000F0D6F8B3
:101FB000DA2000F0D3F8122000F0D0F8DB2000F097
:101FC000CDF8202000F0CAF88D2000F0C7F81420CA
:101FD00000F0C4F8AF2000F0C1F80020FFF78CFF3C
:101FE00006480021009040237F220846FEF782FC2D
:101FF0000021BDE80840084600F09CB8F84F0008F2
:102000002DE9F04790468A4605460026DFF84890BD
:102010001CE02038C7B27E2D04D90AF1010000254A
:1020200000F0FF0A5146284600F084F807EB47000D
:10203000002409EB4007385D00F0A2F8641CE4B20C
:10204000062CF8D3AD1D761CEDB2F6B218F80600DA
:102050000028DED1BDE8F087E04700082DE9F04711
:102060001500884604464FF0000601D42EA201E078
:1020700055422EA2FFF7C4FF642095FBF0F10A2021
:1020800091FBF0F200FB121110318FB295FBF0F1D1
:1020900091FBF0F200FB121110311FFA81F995FB50
:1020A000F0F100FB115010301FFA80FA7E2C04D999
:1020B00008F10100002400F0FF08A01DC0B2414655
:1020C00000F038F81A4D07EB470005EB4007B85D04
:1020D00000F056F8761CF6B2062EF8D304F10C0088
:1020E000C0B2414600F026F809EB4900002605EB96
:1020F0004007B85D00F044F8761CF6B2062EF8D31F
:102100001234E0B2414600F015F80AEB4A00002410
:1021100005EB4005285D00F033F8641CE4B2062CA2
:10212000F8D3BDE8F0870000200000002D0000007B
:10213000E047000810B50446B031C8B200F00EF810
:10214000102040EA141000F009F804F00F00BDE878
:10215000104040F0010000F001B8000001B584B06B
:102160000121102204A88DE807000B4600227821E7
:102170000248FEF777FD05B000BD000048010020D1
:1021800001B584B00121102204A88DE807000B4698
:10219000402278210248FEF765FD05B000BD000031
:1021A0004801002070B50646082188B00024084682
:1021B000FEF718FB00210D2000F056FC80210E20B8
:1021C000FEF710FB93208DF8040020208DF8050009
:1021D00006A801AB0090022219460C2000F040F83E
:1021E00005000DD1002101A8425C7254425C491CDB
:1021F0005440C9B20429F7D3405CA04200D0FE2568
:1022000080210E2000F032FA08B0284670BD30B5AB
:1022100087B08DF804008DF80510002001A9145C2A
:102220000D18401CC0B2AC700628F8D300200C1862
:102230001A5C401CC0B222720628F8D306A800908F
:102240000B460C220E2000F00BF8040004D10820ED
:1022500000F078F9000700D4FE2407B0204630BD16
:102260002DE9FF5F0027FE25DDF838A016468B46D6
:102270008146B8460C2805D0B9F10E0F05D11227BA
:10228000102001E077273020804647F080010220AF
:1022900000F0EAFB80210420FEF7A4FA00210120CF
:1022A00000F0E2FB80210A2000F0E0F9002405E0C4
:1022B0001BF80410092000F0D7FB641CB442F7D3CC
:1022C0004946012000F0D0FBB9F10C0F03D1802169
:1022D0000D2000F0CBF9284E042000F033F904461D
:1022E000761E04D0E00702D114EA080FF4D0802152
:1022F0000D20FEF777FA36B1062000F023F910F032
:102300001B0F0CD0FE2580210C2000F0AFF900211E
:10231000012000F0A9FB04B02846BDE8F09F00258D
:102320003C40E00700D0FF25B9F10C0FEBD10A20AB
:1023300000F008F904460C2000F004F910F0070042
:1023400003D0E1000839084400E0E0008AF800000A
:1023500024B1122C04D91224002603E00124FBE747
:10236000002605E0092000F0EDF803998855761C59
:10237000A642F7D3C7E70000A086010030B587B0BA
:102380000D4630218DF8041001AC8DF805000221B6
:102390002046A21CFEF7F3F906A801AB0090042228
:1023A00019460C20FFF75CFF18B99DF8181090290A
:1023B00002D0FE2007B030BD0023E15CE9545B1C75
:1023C000DBB2102BF9D3F5E730B50C4605460821F2
:1023D00087B00846FEF706FA07210D2000F044FBFF
:1023E0000321142000F042F906A801AB00908DF8FB
:1023F0000450012219460C20FFF732FF18B99DF84E
:102400001810102902D0FE2007B030BD9DF804102E
:1024100021709DF805106170F6E710B588B0932122
:102420008DF8041070218DF8051000218DF80A1028
:1024300001AA5418435CA370445C9DF80A30491CFF
:102440006340C9B28DF80A300429F2D3072101A8EC
:10245000D21DFEF794F908210846FEF7C3F906A835
:1024600001AB0090092219460C20FFF7F9FE18B9BC
:102470009DF81810182900D0FE2008B010BD0000EB
:102480007CB52B495220FFF79FFF294CE41E002802
:10249000207048D104F11400FFF784FE207004F18D
:1024A0001400FFF7BAFF207000283CD104F1140398
:1024B0001A1D02216020FFF7AAFE207010211D487E
:1024C000FDF795FE1B490220FFF758FF20701020F2
:1024D00000F01EFC1749E060CB788A78CDE9002334
:1024E0004B780A7814A100F0E7FA102000F010FCF5
:1024F0000546601DC2788178CDE9001243780278E4
:102500000DA1284600F0D8FA2846E168FDF77AFECA
:10251000002650B1FD202070284600F0A1FBE068A5
:1025200000F09EFBE66020787CBD2670F4E700009A
:1025300007000020D400002025642564256425645C
:102540000000000070B50F4E04464FF48055002285
:1025500029463046FEF7DAFA7E2000EA44000A4CAB
:1025600040F08001204600F06DF80021204600F088
:1025700069F80446012229463046FEF7C7FA20468C
:1025800070BD0000000C01400038004038B50B461B
:10259000009204460022802100F008F8002804D0B0
:1025A000606D40F020006065032038BD2DE9F041EA
:1025B0001D4617460E460446DDF8188035E0681CB7
:1025C00033D02DB1FEF7A8FAA0EB0800A8422CD317
:1025D0002068416821F0E00141606068B0F5827FC9
:1025E0000BD1A068B0F5004F02D0B0F5806F04D1D8
:1025F0002068016821F040010160A06AB0F5005F29
:102600000AD1206801684DF6FF7211400160206810
:10261000016841F400510160012084F8510000205C
:1026200084F850000320BDE8F0812068806836EA15
:10263000000004D00020B842C1D10020F3E70120FF
:10264000F9E7000038B5074CFF20621C21700090AC
:102650000123511E0448FEF78FFF08B1FF2038BD4B
:10266000607838BD000000209C01002070B50C4649
:102670000546FFF767FF40EA04012846BDE87040C1
:1026800000F0F2B94FF47A74204600F077FBFBE7D4
:102690000025134F2E462C4642F210781021F8697F
:1026A00000F088FC00B915B1012D08D013E0012518
:1026B00000262846FEF7A4F8FEF72EFA0AE0464563
:1026C00004D900252846FEF79BF804E0FEF724FA1B
:1026D000011B0E440446C82000F050FBDEE700005A
:1026E000240000200EB50E4D00244FF47A760A2205
:1026F0006846296A00F07CFBDDE90002202803D14E
:1027000002210020FFF77CFC641CE4B22246002179
:102710004020FFF7A3FC304600F030FBE7E7000065
:10272000240000200A4C0B4E4FF400554FF47A77EA
:102730001021A06900F03EFC40B10122294630463C
:10274000FEF7E4F9384600F019FBF1E70022F5E75F
:1027500024000020001001408CB020216846FDF7C5
:1027600046FD002421A10A940B94D1E90001214DDA
:102770004FF47A76CDE90801FFF782FEA8B10E2169
:102780001D48FDF734FD0E221CA11B48FDF716FD68
:102790001EA201210020FFF733FC1749286A00F030
:1027A00071FB304600F0EAFAE6E7684601F076F899
:1027B000089408AB0AAA18A168460994FDF730FDF1
:1027C00008AA01210020FFF71BFC0E210A48FDF793
:1027D0000EFD0E2213A10848FDF7F0FCA86900F0D9
:1027E000C1FBE86900F0BEFBD7E7000030303030B5
:1027F0003030300024000020E40000206E6F742090
:1028000068617665206361726400000020202020EA
:102810002020202000000000255B5E3A5D3A25382C
:1028200073000000202020206861766520636172BB
:102830006400000010B5FEF7F3FABDE8104000F0A8
:10284000EDBB30B58FB001210804CDE900100024A4
:10285000029402250491CDE907504FF4E01009904D
:102860006846FEF797FC00B1FEE70F20CDE90A05A8
:102870004FF48060CDE90C4002210AA80E94FEF7C7
:1028800083FB00B1FEE7FEF729FC4FF47A71B0FB41
:10289000F1F0FEF769FF0420FEF75AFF00220F2136
:1028A000501EFEF73FFB0FB030BD00000D48016821
:1028B00041F00101016041680B4A1140416001682B
:1028C0000A4A11400160016821F4802101604168D9
:1028D00021F4FE0141604FF41F0181600449C003EF
:1028E00008607047001002400000FFF8FFFFF6FE8E
:1028F00008ED00E02DE9F041044600680169E26856
:1029000021F44051114301612169A06808436169C4
:1029100008432168CA6841F20C639A430243CA60C3
:1029200020684169A26921F44071114341614C4919
:1029300020686425322688423CD1FEF7E5FB00EB97
:10294000C00101EB001061688900B0FBF1F7FEF7F0
:10295000DBFB00EBC00101EB00106168B0468900B1
:10296000B0FBF1F0B0FBF5F06FF01801484307EB56
:10297000800106EB0110B0FBF5F000F0F006FEF769
:10298000C3FB00EBC00101EB001061688900B0FBE4
:10299000F1F0B0FBF5F006EB0016FEF7B5FB00EB2F
:1029A000C00101EB001061688900B0FBF1F7FEF790
:1029B000ABFB3BE0FEF798FB00EBC00101EB001026
:1029C00061688900B0FBF1F7FEF78EFB00EBC001F8
:1029D00001EB00106168B0468900B0FBF1F0B0FB7C
:1029E000F5F06FF01801484307EB800106EB01108A
:1029F000B0FBF5F000F0F006FEF776FB00EBC0014F
:102A000001EB001061688900B0FBF1F0B0FBF5F05C
:102A100006EB0016FEF768FB00EBC00101EB0010AF
:102A200061688900B0FBF1F7FEF75EFB00EBC001C7
:102A300001EB001061688900B0FBF1F0B0FBF5F02C
:102A40006FF01801484307EB800108EB0110B0FB61
:102A5000F5F0216800F00F0030448860BDE8F08197
:102A600000380140FEE700002DE9F0410D467E21CF
:102A700001EA40040D4F4FF480560022314638469B
:102A8000FEF744F821460A4C2046FFF7DBFD2946B5
:102A90002046FFF7D7FD012231463846FEF736F8CB
:102AA000BDE8F0410520FDF741BF0000000C0140EA
:102AB00000380040FEE700000FB4084B10B504A931
:102AC00002AA039800F01CF8044602A9002000F0B6
:102AD000C1F8204610BC5DF814FB0000552C00081E
:102AE00002E008C8121F08C1002AFAD170477047D7
:102AF000002001E001C1121F002AFBD17047000035
:102B00002DE9FF4F89B09B460446002506E02528A5
:102B10000BD05A460B999047641C6D1C20780028F6
:102B2000F5D10DB02846BDE8F08F0027B846012248
:102B3000474900E0074314F8013F203B02FA03F045
:102B40000842F7D120782E2819D114F8010F47F048
:102B500004072A280ED06FF02F022078A0F1300150
:102B600009290CD808EB880102EB410100EB0108B0
:102B7000641CF2E70A98641C50F8048B0A902078D1
:102B80000028CED0642808D0692806D075281ED029
:102B90005A460B9990476D1C58E00A994FF00A0964
:102BA00001C90A91002802DA40422D2102E03905CC
:102BB00004D52B218DF82010012103E0F90704D062
:102BC0002021F7E78A4608AE0DE00021FAE70A99CE
:102BD0004FF00A0901C90A91F7E74946FDF7ACFB36
:102BE000303106F8011D0028F7D1ADEB060000F1E9
:102BF0002009780701D44FF00108C84502DDA8EB91
:102C0000090000E000208046002706E008A85A4698
:102C1000C05D0B9990476D1C7F1C5745F6DB04E0A7
:102C200030205A460B9990476D1CB8F10001A8F16D
:102C30000108F5DC05E016F8010B5A460B999047A0
:102C40006D1CB9F10001A9F10109F4DC641C65E710
:102C5000092801000A68531C0B60107070470000BF
:102C600010B5002821D0114B0022001F196803E085
:102C7000814203D80A4649680029F9D152B1136844
:102C8000841A9C4204D1006818441060104602E087
:102C9000506000E0186039B102680B1A934203D10A
:102CA0000B681A4402604968416010BDCC000020E6
:102CB000EFF30580002800D001207047FEF7B8F838
:102CC000FFF7BFFDFEF7EAFFFFF7B0F8FFF7DCF80C
:102CD000FFF758F8FFF780F8FEF7E1FEFFF728F955
:102CE000002106A20846FFF78BF9FEF773FF00F0FC
:102CF0004CF86420FDF71AFEFBE7000072633532E2
:102D00003200000001460020842900D0C81C704712
:102D1000F0B50B30154D20F007010024144A0FE0E8
:102D200003688B420BD38B4205D95E1A4318476860
:102D3000C3E9006700E04368136002C004E0021DBD
:102D400010680028ECD12046002802D1286808B17C
:102D50000020F0BD064A07481060074A121A22F008
:102D60000702C0E9002401202860D7E7D000002036
:102D7000CC000020942B0020902F002010B500B92B
:102D8000012000F0B5FE002010BD10B500F064FF7A
:102D9000002010BD3EB50446002000900190029036
:102DA00020680090606801900C2000F0EDFCA168A4
:102DB0000028086019D0046000220421206801F076
:102DC00009F8A16809684860A168096870B1684697
:102DD00000F086F80100A06800688160A0680068C3
:102DE00003D100BF00F0E6FD00203EBD0846F9E734
:102DF0002DE9FF410D000646029522D04FF0000854
:102E00004446CDF80C80501C20D002B11446FFF788
:102E10004FFF20270028686869461CD003AA091DB7
:102E200001F052FA012814D0CDF800800398E0B1E7
:102E300013494FF080500860BFF34F8FBFF36F8F7F
:102E400013E0802000902A46019910E04FF0FF34F3
:102E5000DDE70097EAE700232246091D00F0DEFFC8
:102E6000012808D04CB1402000909DE8070086E87A
:102E70000700BDE8FF810097F7E70020F4E70000B6
:102E800004ED00E013B582B004000FD000200090E4
:102E9000FFF70EFF002860684FF0000314D06A4669
:102EA00003A901F065F9012814D102E0802004B0E3
:102EB00010BD009880B109494FF080500860BFF301
:102EC0004F8FBFF36F8F07E0002203A901F0A0F836
:102ED000012801D0FF20EAE70020E8E704ED00E048
:102EE0002DE9F04105464068C01C20F0030714207E
:102EF00000F04AFC04001FD0002628682661C4E9BF
:102F00000207286800F040FC606088B128687843B8
:102F100000F03AFC206040B1002002E061680E54ED
:102F2000401C29688142F9D806E0606800F042FD43
:102F3000204600F03FFD00242046BDE8F08110B59A
:102F4000012901D0002010BD03220021012000F042
:102F500041FF040004D000231A46194601F058F836
:102F6000204610BD38B5002405460094FFF7A0FEAA
:102F700090B16946284601F059F9012801D0FF2097
:102F800038BD009888B10A494FF080500860BFF3FF
:102F90004F8FBFF36F8F08E000231A46194628466B
:102FA00001F036F8012800D0FF24204638BD00008B
:102FB00004ED00E038B505004FF0000000900FD0A0
:102FC0000024481C0ED001B10C46FFF771FEB8B1C9
:102FD0006A460021284601F077F9012818D104E05B
:102FE000802038BD4FF0FF34EFE7009890B10A49D8
:102FF0004FF080500860BFF34F8FBFF36F8F09E031
:10300000002322461946284600F008FF012801D077
:10301000FF2038BD002038BD04ED00E010B501F000
:1030200003FA012803D0BDE8104000F0BDBE10BD7A
:103030003EB504460D46B0F90800FFF763FE02A94D
:10304000CDE90001208A2B4682B2D4E9001001F0BC
:10305000BFF9012801D000203EBD02983EBD00000E
:1030600008B500680090012907D0002013460246E9
:10307000012103A001F038FB08BD0120F6E70000A4
:10308000000000002DE9F041184C0F460546E668A7
:103090002068001D00F016FC38B9206890F82C104C
:1030A00001208840216981432161681C07D137B123
:1030B0002168BDE8F0410E48091D00F03BBC2068C6
:1030C0003544B5424560216805D2A06BBDE8F041AA
:1030D000091D00F017BC606B091D00F013FCA06A0D
:1030E000854200D2A562BDE8F08100007C0000208E
:1030F000502B00202DE9F041054600F027FC2E4C16
:10310000A068401CA06020682C4F10B1606940B3DB
:103110002DE02560A068012829D1002606EB860055
:1031200007EB800000F0E0FB761C072EF6D3234867
:103130008C3000F0D9FB2148A03000F0D5FB1F48AF
:10314000B43000F0D1FB1D48C83000F0CDFB1B4867
:10315000DC3000F0C9FB19488C3060631430A06388
:1031600005E02068E96AC06A884200D82560606A84
:10317000401C6062E96A0120226988401043206196
:1031800001EB810007EB8000291D00F0D3FB00F06C
:10319000FDFB606900280CD02068E96AC06A88429B
:1031A00007D207494FF080500860BFF34F8FBFF33D
:1031B0006F8FBDE8F08100007C000020742A0020A1
:1031C00004ED00E010B500F0C1FB0E4C2068A0B982
:1031D0000D4800F089FB0C48143000F085FB0A48CC
:1031E000E0601430206100220C210A2000F0F2FD82
:1031F000206010B105A100F045FCBDE8104000F0D2
:10320000C5BB0000B8000020642B0020546D725133
:103210000000000070B5114E114C17E000F054FD95
:103220003068B8B101F0FEF900F090FBF068C568B5
:10323000281D00F047FBA068401EA0606068401E8B
:10324000606000F0A3FB284600F055F86068002895
:10325000E4D170BD01F0E6F9F8E700003C2B002056
:103260007C00002030B4026C0B46002A0BD0C168F1
:103270001144C1604468A14201D30168C16030BCFF
:103280001846FCF79BBF30BC70472DE9F041856BB9
:10329000174604460026026C82B1C7B1E068FCF70D
:1032A0008DFFE168206C091AE1602268914202D228
:1032B0006168081AE060022F16D017E02068A8B9EC
:1032C000606801F029F90646002060600EE0A06801
:1032D000FCF774FF216CA0680844A0606168884214
:1032E00004D32068A06001E005B16D1E6D1CA563CC
:1032F0003046BDE8F08110B50446006B00F05AFB83
:103300002046BDE8104000F055BB000010484FF4C7
:103310002051420706D0C01D0D4920F00700411A78
:10332000C1F520510B4A00230144C2E900030839CA
:10333000103A21F0070111604B600B600B1AC0E9D5
:10334000001393604FF000405360D060704700005E
:103350003402002068000020074C4FF08056074DD3
:10336000FFF758FF20680128FAD92E60BFF34F8F6E
:10337000BFF36F8FF4E70000742A002004ED00E033
:103380002DE9F0479A46DDE9098481466FF0030391
:10339000206B03EB82021044089D20F007067007A3
:1033A00007D0502080F31188BFF34F8FBFF36F8F8A
:1033B000FEE723180A5C83F834200A5C12B1401C33
:1033C0001028F6D3002784F84370072D00D3062574
:1033D000E562C4E91157201D00F091FA04F11800CC
:1033E00000F08DFA2461C5F107006462A061E76412
:1033F00084F8507052464946304600F03DFA20604D
:10340000B8F1000F01D0C8F80040BDE8F087000017
:1034100030B5114900E011460A688242FBD34B687F
:103420005C18844203D140681844486008464368E9
:103430001C18944209D1084C103C2468A24209D0BF
:1034400052681A4442600A6812680260814200D0E1
:10345000086030BD0460F9E76800002070B5002402
:1034600041600B4D0061914206D8D11A82699142A8
:1034700006D2011D286907E09A4203D2994201D37E
:10348000012403E0011DE86800F03CFA204670BD0D
:10349000B800002010B5044600F058FAA06B28B11F
:1034A0005FF0000400F072FA204610BD0124F9E735
:1034B00030B587B02B4D4BE00498002848DB069CC4
:1034C000606910B1201D00F0FDF902A800F0B6F807
:1034D000024604980A283BD2DFE800F00505053AC9
:1034E000263705053A260598A1690346014420467A
:1034F000FFF7B4FF00B3616A20468847E0690128FE
:1035000026D1002000900598A16900234218194691
:10351000204601F035F978B9502080F31188BFF3C7
:103520004F8FBFF36F8FFEE70598A06128B1811818
:1035300013462046FFF792FF0AE0502080F31188DF
:10354000BFF34F8FBFF36F8FFEE7204600F032FAD4
:1035500000231A4604A9286800F060FC0028ABD1BB
:1035600007B030BDB80000202DE9FC410F460546EC
:1035700000F0AAFB01A800F061F80446019818B118
:1035800001F050F8BDE8FC81224EAFB1306900680F
:10359000A8B30027291B3A46306800F087FA01F0EB
:1035A00041F80028EED11C494FF080500860BFF36D
:1035B0004F8FBFF36F8FE5E7A542EBD801F032F8EC
:1035C000F0682746C068C468201D00F07BF9E069F8
:1035D000012810D1A0692B4641193A462046FFF731
:1035E0003DFF40B100200346014600902A46204698
:1035F00001F0C6F820B1616A20468847C2E707E0BB
:10360000502080F31188BFF34F8FBFF36F8FFEE719
:103610000127BFE7B800002004ED00E00648416B39
:10362000096829B1416BC968C968496881627047F6
:103630004FF0FF31FAE700007C00002070B505462E
:1036400000F000FF064E0446B068844203D200F04A
:1036500009F8012000E0002028602046B46070BD19
:10366000B8000020F8B5194D1FE0C068C4680668AE
:10367000201D00F027F9616A20468847E06901288B
:1036800013D1A0693044B04206D924616060211D85
:10369000E86800F037F908E0002003460146009092
:1036A0003246204601F06CF838B1E868016800291C
:1036B000DBD12969C5E90310F8BD502080F31188DA
:1036C000BFF34F8FBFF36F8FFEE70000B8000020FD
:1036D00008484068401C4FF0500080F3118804D027
:1036E000BFF34F8FBFF36F8FFEE7BFF34F8FBFF373
:1036F0006F8FFEE770000020074CE068016841B161
:10370000C0680021D0F80000FFF72EFFFFF7D0FEC1
:10371000F3E701210020F7E7B80000202DE9F04190
:10372000044600F013F994F9455004F1240609E029
:10373000606A48B1304600F03BFF08B100F0FEF986
:103740006D1E6DB2002DF3DC4FF0FF3684F845603E
:1037500000F01CF900F0FAF894F9445004F1100755
:1037600009E0206948B1384600F022FF08B100F0B6
:10377000E5F96D1E6DB2002DF3DC84F84460BDE800
:10378000F04100F003B900002DE9F04105460027A3
:1037900000F09AFA314E306808B9FFF7B7FDF068CB
:1037A00005424BD1C5B3083568070ED005F00700B8
:1037B000C0F108000544680707D0502080F3118845
:1037C000BFF34F8FBFF36F8FFEE72DB37068854255
:1037D00034D82248103001460C6801E020460C46DF
:1037E0006168A94202D221680029F7D131688C4270
:1037F00024D007682168016060680837411B1029E0
:103800000FD96019420708D0502080F31188BFF308
:103810004F8FBFF36F8FFEE710E041606560FFF7E9
:10382000F7FD61687068401A7060B268904200D21B
:10383000B060F06801430020C4E9000100F0F2FE2E
:10384000780707D0502080F31188BFF34F8FBFF364
:103850006F8FFEE73846BDE8F08100005800002079
:103860000449086818B10868826C521C82640868B0
:10387000704700007C00002010B5031F4FF08074DB
:103880001C601B1F21F001011960191F024B0B6006
:10389000143940380A6010BDD136000870B5084BA5
:1038A00005461A1D01216020FEF7B1FC044C294693
:1038B000143CA0700120FEF761FDA07070BD0000F7
:1038C00018000020D0E9013201699A60D0E9012393
:1038D0005A604A68824201D182684A6000220261CD
:1038E0000868401E0860704700F108014FF0FF3281
:1038F000C0E90112C160016100210160704700212F
:103900000161704730B50B685A1C02D000F1080203
:1039100002E0026904E02246546825689D42FAD913
:1039200053684B6099608A60516008610168491C66
:10393000016030BD42684A6093688B60936859604B
:10394000916008610168491C01607047502080F354
:103950001188BFF34F8FBFF36F8F0A494868401C2F
:10396000486001280CD10848006810F0FF0F07D00C
:10397000502080F31188BFF34F8FBFF36F8FFEE7A6
:10398000704700007000002004ED00E0084948681E
:1039900028B1401E486001D180F311887047502043
:1039A00080F31188BFF34F8FBFF36F8FFEE70000E6
:1039B0007000002070B5002827D0144DA0F1080435
:1039C0006168E868014207D1502080F31188BFF395
:1039D0004F8FBFF36F8FFEE722683AB1502080F31C
:1039E0001188BFF34F8FBFF36F8FFEE78143616094
:1039F00000F06AF960686968084468602046FFF76B
:103A000007FDBDE8704000F00DBE70BD58000020FD
:103A100006484FF47A710068B0FBF1F14FF0E020F6
:103A2000491E4161072101617047000054000020D8
:103A300010B5FCF7ADFB114910280ED300F1E020C2
:103A400090F8F0030A78904207D2502080F3118852
:103A5000BFF34F8FBFF36F8FFEE709480068896897
:103A600000F4E060884207D9502080F31188BFF34A
:103A70004F8FBFF36F8FFEE710BD00007000002076
:103A80000CED00E010B5084B002200BF53F83240A7
:103A90001CB1521C082AF9D310BD43F8321003EBB5
:103AA000C201486010BD0000342A002070B51546E0
:103AB0000E460446FFF74AFF94F944100020491CC3
:103AC00001D184F8440094F94510491C01D184F8CF
:103AD0004500FFF75BFFA06B28B92A46314604F189
:103AE000240000F049F82046BDE87040FFF716BEFC
:103AF00010B5020014D00F48006B38B1502080F38D
:103B00001188BFF34F8FBFF36F8FFEE700F0DCF833
:103B100000211046FFF7B6FA00F084FD002807D117
:103B200005494FF080500860BFF34F8FBFF36F8F90
:103B300010BD00007C00002004ED00E001490120E0
:103B4000C86170477C00002010B50C4650B109498F
:103B500009681831FFF7D6FE2046BDE81040012164
:103B6000FFF790BA502080F31188BFF34F8FBFF357
:103B70006F8FFEE77C00002070B514460D4668B1DB
:103B80000A4909681831FFF7D5FE0CB14FF0FF352F
:103B900021462846BDE87040FFF774BA502080F3F4
:103BA0001188BFF34F8FBFF36F8FFEE77C000020BB
:103BB00070B5040039D01D4DE06A2968C96A884291
:103BC00033D2A069002804DB2868C06AC0F107006E
:103BD000A061E16A164E01EB8101606906EB81018B
:103BE00088421FD1201DFFF76DFE012150B9E06A08
:103BF00000EB800256F8222022B92A6901FA00F06F
:103C000082432A612868C06AE0622A6981401143C0
:103C1000296100EB800006EB8000211DBDE87040AB
:103C2000FFF788BE2868C06AE06270BD7C00002093
:103C3000742A002028B107490A6A0260C9684160F5
:103C40007047502080F31188BFF34F8FBFF36F8F01
:103C5000FEE700007C0000201CB517480024CDE9D9
:103C600000402346802215A1164800F0B1FB012830
:103C700003D100F061FD012809D0401C1AD1502069
:103C800080F31188BFF34F8FBFF36F8FFEE7502093
:103C900080F31188BFF34F8FBFF36F8F06484FF04B
:103CA000FF312C38816201214161C460BDE81C40B4
:103CB00000F040B81CBD0000A800002049444C455D
:103CC00000000000593300080248016B491C0163E1
:103CD000704700007C0000201448016B11B10121E5
:103CE000C16170470021C1610169B1FA81F1C1F17F
:103CF0001F0101EB81020E4951F822306BB101EB3B
:103D0000820101F108034A6852684A609A4201D16F
:103D100052684A60D16801607047502080F3118872
:103D2000BFF34F8FBFF36F8FFEE700007C000020D2
:103D3000742A00201CB5194908780190FF200870EA
:103D400008788DF800009DF80000154A00F050003A
:103D500010700720906005E09DF800305B008DF842
:103D60000030401E9DF800301B06F5D4000200F420
:103D7000E0609060019808700A48016841F47001A1
:103D80000160016841F070410160FFF741FE0020D1
:103D90005060FCF7C7F900201CBD000000E400E003
:103DA0007000002020ED00E010B5502080F3118855
:103DB000BFF34F8FBFF36F8F00F04AFB18B1044978
:103DC0004FF080500860002080F3118810BD000083
:103DD00004ED00E070B50E46050013D0D6B105FB2A
:103DE00006F04830FFF7D0FC040009D004F1480188
:103DF00020468EB10160C0E90F56012100F0C4F8E1
:103E0000204670BD502080F31188BFF34F8FBFF361
:103E10006F8FFEE70020E4E70060ECE72DE9FF4F3D
:103E2000002683B09B468A46040003D0BAF1000FF7
:103E300008D011E0502080F31188BFF34F8FBFF3FB
:103E40006F8FFEE7206C38B1502080F31188BFF3EC
:103E50004F8FBFF36F8FFEE700F0E6FADFF82481A3
:103E60004FF000094FF0805748B9059838B15020FD
:103E700080F31188BFF34F8FBFF36F8FFEE7FFF71B
:103E800065FDA56B45B351462046E668FFF7EAF9A4
:103E9000BBF1000F13D0E660606A50B104F124005A
:103EA00000F086FB28B1C8F80070BFF34F8FBFF356
:103EB0006F8FFFF76BFD012007B0BDE8F08F6D1E1F
:103EC000A563206810B9FFF7CBFC6060206900286B
:103ED000EFD004F11000E3E7059808B11EB106E049
:103EE000FFF754FD27E06846FFF7A4FE0126FFF721
:103EF0004DFDFFF7E9FEFFF729FD94F94400401C52
:103F000001D184F8449094F94500401C01D184F813
:103F10004590FFF73BFD05A9684600F023FA00280D
:103F200020460AD0FFF7FAFB00F07CFB2046FFF7A3
:103F3000B1FA0028A3D00020BEE7FFF7ABFAD8B152
:103F4000206830B9FFF702FD6068FFF731FEFFF728
:103F50001DFD04F124000599FFF7F6FD2046FFF74B
:103F6000DDFB00F05FFB002889D1C8F80070BFF3CB
:103F70004F8FBFF36F8F82E72046FFF7CFFB00F034
:103F800051FB7CE704ED00E070B50D46040025D040
:103F9000FFF7DCFCD4E90F20216802FB001161600F
:103FA0000021A1632168A1600A46D4E90F01401EE7
:103FB00000FB0121E16021464FF0FF3001F8440F82
:103FC000487004F110008DB1FFF78EFC04F124005D
:103FD000FFF78AFCFFF7DAFC012070BD502080F368
:103FE0001188BFF34F8FBFF36F8FFEE72169002960
:103FF000F0D000F0DDFA0028ECD004494FF08050FA
:104000000860BFF34F8FBFF36F8FE3E704ED00E06D
:104010002DE9FF4782B01D468A464FF00008040094
:1040200003D0BAF1000F08D011E0502080F31188BE
:10403000BFF34F8FBFF36F8FFEE7206C38B1502076
:1040400080F31188BFF34F8FBFF36F8FFEE7022D10
:104050000AD1E06B012807D0502080F31188BFF30C
:104060004F8FBFF36F8FFEE700F0DEF93F4F4FF049
:1040700000094FF0805648B9049838B1502080F3B9
:104080001188BFF34F8FBFF36F8FFEE7FFF75EFC22
:10409000A06BE16B884207D3022D05D00498D0B104
:1040A000B8F1000F1AD01EE02A4651462046FFF70D
:1040B000ECF8616A19B104F1240000F079FA20B13A
:1040C0003E60BFF34F8FBFF36F8FFFF75FFC0120A0
:1040D00006B0BDE8F087FFF759FC22E06846FFF71D
:1040E000A9FD4FF00108FFF751FCFFF7EDFDFFF7C9
:1040F0002DFC94F94400401C01D184F8449094F9BB
:104100004500401C01D184F84590FFF73FFC04A90D
:10411000684600F027F930B12046FFF7FFFA00F0BB
:1041200081FA0020D4E7FFF711FCA06BE16B884215
:1041300013D1FFF72BFC04F110000499FFF704FDE5
:104140002046FFF7EBFA00F06DFA00289ED13E60A2
:10415000BFF34F8FBFF36F8F98E7FFF717FC204631
:10416000FFF7DCFA00F05EFA90E7000004ED00E0F3
:104170002DE9F0471F4690468946040003D0B9F167
:10418000000F08D011E0502080F31188BFF34F8F4B
:10419000BFF36F8FFEE7206C38B1502080F3118899
:1041A000BFF34F8FBFF36F8FFEE7022F0AD1E06B93
:1041B000012807D0502080F31188BFF34F8FBFF341
:1041C0006F8FFEE7FFF734FC5020EFF3118680F38A
:1041D0001188BFF34F8FBFF36F8FA06BE16B8842E5
:1041E00006D3022F04D0002086F31188BDE8F087A3
:1041F00094F945503A4649462046FFF746F8681C70
:1042000004D06D1C84F845500120EDE7606A002859
:10421000FAD004F1240000F0CBF90028F4D0B8F172
:10422000000FF1D00121C8F80010EDE770B50E467F
:10423000040009D0206C78B1502080F31188BFF3BE
:104240004F8FBFF36F8FFEE7502080F31188BFF3CD
:104250004F8FBFF36F8FFEE7206848B9606838B1B1
:10426000502080F31188BFF34F8FBFF36F8FFEE7AD
:10427000FFF7DEFB5020EFF3118580F31188BFF3C9
:104280004F8FBFF36F8FA16BE06B884218D994F901
:104290004500491CA163411C04D0401C84F8450022
:1042A00001200EE0606A0028FAD004F1240000F03A
:1042B0007FF90028F4D0002EF2D001203060EFE723
:1042C000002085F3118870BD2DE9F047904689469E
:1042D000040003D0B9F1000F08D011E0502080F3A2
:1042E0001188BFF34F8FBFF36F8FFEE7206C38B19B
:1042F000502080F31188BFF34F8FBFF36F8FFEE71D
:10430000FFF796FB5020EFF3118680F31188BFF37F
:104310004F8FBFF36F8FA76BF7B194F944504946A5
:104320002046FEF79FFF7F1EA763681C04D06D1C0C
:1043300084F84450012010E020690028FAD004F1EC
:10434000100000F035F90028F4D0B8F1000FF1D0DA
:104350000121C8F80010EDE7002086F31188BDE8C0
:10436000F087000070B50D46040019D005B3FFF7C3
:10437000EDFA164AD1682868431C0FD02368126AE8
:10438000934202D062688A421AD96268891A8142CD
:1043900016D2401A28602046FFF74CFC002410E09B
:1043A000502080F31188BFF34F8FBFF36F8FFEE76C
:1043B000502080F31188BFF34F8FBFF36F8FFEE75C
:1043C0000124FFF7E3FA204670BD00007C000020C6
:1043D0002DE9FF5F8346DDE90E87994616468A463A
:1043E0009000FFF7D1F905001AD05420FFF7CCF95F
:1043F000040012D025630021CDE90241CDE90087F8
:104400004B46324651465846FEF7BAFF2046FEF765
:1044100071FE012004B0BDE8F09F2846FFF7CAFAFC
:104420004FF0FF30F6E700000548416919B1006B15
:1044300018B100207047012070470220704700002B
:104440007C0000200148C068704700007C0000200C
:104450002DE9F0412E4C0027206B40B1A069401C93
:10446000A061E06900B101273846BDE8F081E66847
:10447000761CE66013D1606B006838B1502080F381
:104480001188BFF34F8FBFF36F8FFEE7606BA16B97
:104490006163A063206A401C2062FFF7BFF8A06A36
:1044A000DFF87080864209D3606B006880B1606B72
:1044B000C068C568686886420DD2A0622068C06A7C
:1044C00000EB800158F821000128CAD90127C8E76C
:1044D0004FF0FF30F1E7281DFFF7F4F9A86A18B193
:1044E00005F11800FFF7EEF9E86A01212269814021
:1044F0001143216100EB800108EB8100291DFFF7CA
:1045000019FAE86A2168C96A8842CDD30127CBE746
:104510007C000020742A002070B504004FF00001D8
:1045200040D0214D2868844207D0502080F3118864
:10453000BFF34F8FBFF36F8FFEE7A06C38B1401E03
:10454000A064636CE26A9A422CD040B12AE0502009
:1045500080F31188BFF34F8FBFF36F8FFEE7201DED
:10456000FFF7B0F9114A012150B9E06A00EB80036E
:1045700052F8233023B92B6901FA00F083432B61F1
:10458000606CE062C0F10700A061E06A2B698140C5
:104590001943296100EB800002EB8000211DFFF729
:1045A000C9F90121084670BD7C000020742A002052
:1045B0002DE9F041C068C468ACB104F118000746A9
:1045C000FFF780F9154D286B0126A0B13946144834
:1045D000FFF7B0F9E06A2968C96A88421CD901204E
:1045E000EE61BDE8F081502080F31188BFF34F8F5A
:1045F000BFF36F8FFEE7201DFFF764F9E16A2A69B8
:1046000006FA01F01043286101EB81000449B43936
:1046100001EB8000211DDBE70020E2E77C000020A9
:10462000282B00202DE9F0472C4D00242746286B2D
:1046300038B1FFF78BF9286B401E2863286B40B117
:1046400046E0502080F31188BFF34F8FBFF36F8F88
:10465000FEE7A968224E0120D1B3A6F1B409804635
:104660003068E8B1F068C46804F11800FFF72AF96F
:10467000201DFFF727F9E06A2A6908FA00F11143C3
:10468000296100EB800109EB8100211DFFF752F940
:10469000E06A2968C96A8842E2D3C5F81C80DFE76E
:1046A0000CB1FEF7BBFFAC6944B14646FFF7D0FE44
:1046B00000B1EE61641EF9D10020A861E86938B14B
:1046C0000849012738070860BFF34F8FBFF36F8F8A
:1046D000FFF75CF93846BDE8F08700007C00002059
:1046E000282B002004ED00E02DE9F047074699460D
:1046F00016460D462820DDF820A0FFF745F80400F7
:104700000ED0B8464F46D1466DB1FEF75BFD04F1C1
:104710001801C4F8008081E8E002201DFFF7EFF8DF
:104720002046BDE8F087502080F31188BFF34F8FFB
:10473000BFF36F8FFEE700001CB5FEF743FD0C488A
:10474000006860B10A490220091DCDE90001C201DB
:10475000002308A10948FFF73BFE002807D150209D
:1047600080F31188BFF34F8FBFF36F8FFEE71CBD3F
:10477000B8000020546D722053766300F9360008AB
:10478000FEB51E4613460200089D4FF0000014D0EF
:10479000124C2768002F0FD0CDE900130292062992
:1047A00015DAFFF741FE02284FF000030DD000227A
:1047B00069462068FFF72CFCFEBD502080F311886D
:1047C000BFF34F8FBFF36F8FFEE72A46F0E700235A
:1047D000324669463846FFF7CBFCFEBDB8000020E4
:1047E0000000000000000000002F00000000070093
:1047F000070000147F147F1400242A7F2A1200620D
:1048000064081323003649552250000005030000B8
:1048100000001C224100000041221C000014083E40
:1048200008140008083E0808000000A06000000806
:10483000080808080000606000000020100804025A
:10484000003E5149453E0000427F40000042615118
:104850004946002141454B31001814127F100027B2
:1048600045454539003C4A49493000017109050375
:1048700000364949493600064949291E00003636A6
:104880000000000056360000000814224100001409
:1048900014141414000041221408000201510906E6
:1048A00000324959513E007C1211127C007F494967
:1048B0004936003E41414122007F4141221C007F98
:1048C00049494941007F09090901003E4149497AA6
:1048D000007F0808087F0000417F41000020404120
:1048E0003F01007F08142241007F40404040007F8C
:1048F000020C027F007F0408107F003E4141413ED0
:10490000007F09090906003E4151215E007F091917
:1049100029460046494949310001017F0101003F14
:104920004040403F001F2040201F003F4038403F94
:1049300000631408146300070870080700615149F8
:10494000454300007F41410000552A552A5500008B
:1049500041417F0000040201020400404040404009
:10496000000001020400002054545478007F4844A1
:10497000443800384444442000384444487F0038D8
:104980005454541800087E0901020018A4A4A47C01
:10499000007F080404780000447D400000408084CB
:1049A0007D00007F102844000000417F4000007C13
:1049B00004180478007C080404780038444444381F
:1049C00000FC242424180018242418FC007C08046B
:1049D000040800485454542000043F444020003C44
:1049E0004040207C001C2040201C003C4030403CCB
:1049F000004428102844001CA0A0A07C004464545B
:104A00004C4414141414141400000000000000009E
:104A10000000000000000000000000F8000000009E
:104A2000000000333000000000100C06100C0600DF
:104A3000000000000000000040C07840C078400046
:104A4000043F04043F040400007088FC08300000A8
:104A5000001820FF211E0000F008F000E018000000
:104A600000211C031E211E0000F0088870000000B9
:104A70001E2123241927211010160E00000000000B
:104A80000000000000000000000000E01804020028
:104A9000000000071820400000020418E000000099
:104AA0000040201807000000404080F08040400097
:104AB0000202010F01020200000000F000000000ED
:104AC0000101011F010101000000000000000000C1
:104AD00080B0700000000000000000000000000036
:104AE00000010101010101010000000000000000BF
:104AF000003030000000000000000000806018045A
:104B0000006018060100000000E010080810E00036
:104B1000000F102020100F00001010F800000000FF
:104B20000020203F20200000007008080888700046
:104B300000302824222130000030088888483000C6
:104B40000018202020110E000000C02010F80000E6
:104B500000070424243F240000F80888880808007F
:104B60000019212020110E0000E010888818000094
:104B7000000F112020110E0000380808C838080066
:104B80000000003F000000000070880808887000E6
:104B9000001C222121221C0000E010080810E00067
:104BA0000000312222110F00000000C0C0000000F0
:104BB0000000003030000000000000800000000015
:104BC000000080600000000000008040201008000D
:104BD00000010204081020004040404040404000D6
:104BE00004040404040404000008102040800000B1
:104BF0000020100804020100007048080808F000B6
:104C00000000003036010000C030C828E810E00085
:104C10000718272423140B000000C038E000000010
:104C2000203C23020227382008F88888887000007A
:104C3000203F202020110E00C0300808080838004E
:104C4000071820202010080008F808080810E000C5
:104C5000203F202020100F0008F88888E808100066
:104C6000203F20202320180008F88888E80810003A
:104C7000203F200003000000C03008080838000072
:104C800007182020221E020008F808000008F80873
:104C9000203F210101213F20000808F808080000FA
:104CA0000020203F2020000000000808F80808002D
:104CB000C08080807F00000008F888C028180800A5
:104CC000203F20012638200008F8080000000000DE
:104CD000203F20202020300008F8F800F8F80800D5
:104CE000203F003F003F200008F830C00008F808CF
:104CF000203F200007183F00E01008080810E000DF
:104D00000F10202020100F0008F808080808F000F5
:104D1000203F210101010000E01008080810E00018
:104D20000F18242438504F0008F8888888887000AD
:104D3000203F2000030C302000708808080838004D
:104D40000038202121221C00180808F80808180043
:104D50000000203F2000000008F808000008F808C4
:104D6000001F202020201F000878880000C8380875
:104D7000000007380E010000F80800F80008F800ED
:104D8000033C0700073C0300081868808068180887
:104D900020302C03032C30200838C800C838080005
:104DA0000000203F2000000010080808C838080054
:104DB0002038262120201800000000FE02020200F8
:104DC0000000007F40404000000C30C000000000A8
:104DD000000000010638C00000020202FE000000D0
:104DE000004040407F000000000004020202040076
:104DF00000000000000000000000000000000000B3
:104E0000808080808080808000020204000000009A
:104E10000000000000000000000080808080000092
:104E20000019242222223F2008F800808000000080
:104E3000003F112020110E00000000808080000043
:104E4000000E112020201100000000808088F80052
:104E5000000E112020103F20000080808080000084
:104E6000001F222222221300008080F088888818E8
:104E70000020203F202000000000808080808000F3
:104E8000006B94949493600008F800808080000088
:104E9000203F210000203F20008098980000000063
:104EA0000020203F20200000000000809898000093
:104EB00000C08080807F000008F8000080808000B3
:104EC000203F24022D302000000808F800000000D8
:104ED0000020203F20200000808080808080800093
:104EE000203F20003F20003F808000808080000025
:104EF000203F210000203F200000808080800000B3
:104F0000001F202020201F008080008080000000E3
:104F100080FFA12020110E00000000808080800012
:104F2000000E112020A0FF80808080008080800003
:104F300020203F2120000100000080808080800030
:104F40000033242424241900008080E080800000A5
:104F50000000001F202000008080000000808000F2
:104F6000001F202020103F20808080000080808053
:104F700000010E30080601008080008000808080E3
:104F80000F300C030C300F00008080008080800008
:104F90000020312E0E312000808080000080808033
:104FA00080818E70180601000080808080808000E3
:104FB0000021302C2221300000000000807C020201
:104FC00000000000003F404000000000FF00000023
:104FD00000000000FF0000000002027C80000000D2
:104FE0000040403F000000000006010102020404EE
:104FF00000000000000000000000000000000000B1
:1050000000000000000000000000000000000000A0
:105010000000000000000000000000000000000090
:105020000000000000000000000000000000000080
:105030000000000000000000000000000000000070
:105040000000000000000000000000000000000060
:105050000080400080A08080E0C0D0D0C8F064A86C
:1050600090EAA46040400020000000000000000022
:105070000000000000000000000000000000000030
:105080000000000000000000000000000000000020
:105090000000000000000000000000000000000010
:1050A0000000000000000000000000000000000000
:1050B00000000000800080000000200000C100AC63
:1050C000E5F2DEEFFFFF7D3D5DFDFF3FFFFFFFFFF0
:1050D000FFFFFFFFFFFCFFF8E08200000000000080
:1050E00000000000000000000000000000000000C0
:1050F00000000000000000000000000000000000B0
:10510000000000000000000000000000000000009F
:10511000000000000000000000000000000000008F
:10512000000020200078042040491C8B0A68557F2D
:105130007F07063F1F7F038001808083809FC7FF1A
:105140007F3F1D0F07996FFFFFC64300000000005F
:10515000000000000000000000000000000000004F
:10516000000000000000000000000000000000003F
:10517000000000000000000000000000000000002F
:1051800000000000000000000000008080E0E0E17E
:10519000E1E0C0C000030262250084D875119DEED5
:1051A00018F8FEFCF8E4C387830101000000000149
:1051B00010080000020C8778FDFFFF0000000000CF
:1051C00000000000000000000000000000000000DF
:1051D000000000000000000000000000003020601F
:1051E00060E0E0E0E0E0E0F0F0F0F0707078787817
:1051F0007C7C7C7CFCFEFEFFFFFFFFFFBFFF2F6F70
:10520000CFFFFFFFFFDFFF00FB0864C085D2B0BC0B
:10521000B33F57D39BF1280707070301008080F0B5
:10522000B8783020202018F7FFFD1F010000000093
:10523000000000000000000000000000000000006E
:10524000000000000000000000000000000000005E
:105250000000000000000001010180C0E0E0F0F863
:10526000FCFCFEFF7F3F1F0F0707070F1F3F7F7FDD
:10527000FFEFFFFFFFFFFF873EC7FFFCA7FFFE7F9B
:10528000BFBFBE9C0F8FC7DEFEFC3E0E06030101B2
:10529000010202000000001E1F7FFF460000000008
:1052A00000000000000000000000000000000000FE
:1052B0000000000000000000000000004040C0C0EE
:1052C000E0E0F0707878F8FC7E0F0F070703030327
:1052D00001010100000000000000000000000000CB
:1052E000C0FCFFFF7F7F7F7F3F3C33FF3F7CEBFFB6
:1052F000EFFFDFBEFFF47F3B3F7FFFFEFEF6FEF8D1
:10530000F0E1C0C0C0C0808280000000000000004A
:10531000000000000000000000000000000000008D
:105320000000000000000000000000000000020279
:105330000207060E0E1E1E3E3E7EF0E0E0C0C0C01C
:1053400080808000000000000000000000000000DD
:1053500000020E7C70E0FCF0FCFCF81829CB370E44
:10536000CEEDFDFDFDFD7D6FEEFFFFFFFFBFFF7F7B
:105370007F3F0F0F0F1E1C1F0F0F0F0F06060D068E
:10538000000000000000000000000000000000001D
:10539000000000000000000000000000000000000D
:1053A00000000000000000000000000000000000FD
:1053B00000000000000000000000000000000000ED
:1053C0007D070008B854000885260008FEFF00008D
:1053D0000000000080000000A454000825270008F9
:1053E0000000000000000000800000008C54000855
:1053F0005927000802000000000000000001000022
:1054000098540008E5260008010000000000000094
:1054100000010000B054000891260008FFFF0000C2
:1054200000000000800000000E00000001000000ED
:105430000000000000000000000000000102030462
:10544000060708090000000001020304DDDDDDDDC0
:10545000DCBBBBDDDDDDDDDDDDDDDDDD9888888805
:1054600088888888777777777788888885555556AC
:105470006666666666666666666888888333333203
:1054800022222222222222222228888D52433532B1
:10549000325F5441534B00004C43445F5441534BE3
:1054A000000000004C45445F5441534B0000000095
:1054B000446F6F7254736B0064656661756C7454ED
:1054C00061736B00E454000800000020D400000069
:1054D000E02A0008B8550008D4000020BC300000C5
:1054E000F02A000800000000000000000006060688
:1054F00006000000000000000000000000000000A6
:10550000FFFFFFFFFFFF00000000000000000000A1
:10551000000000000000000000000000000000008B
:10552000000000000000000000000000010000007A
:10553000100000000000000000A24A04000000006B
:10554000000000000000000000000000000000005B
:105550000000000000000000AAAAAAAA00000000A3
:10556000000000000000000000000000000000003B
:10557000000000000000000000000000000000002B
:10558000000000000000000000000000000000001B
:10559000000000000000000000000000000000000B
:1055A00000000000000000000000000000000000FB
:0855B0000000000000000000F3
:04000005080000ED02
:00000001FF
