:10102A003F065B4F666D7D077F6F40BF86DBCFE66D
:0F103A00EDFD87FFEF0000000000000000000048
:0E107B00011400011901021700780212014051
:10100A00E4FDFCC3ED9FEC9E5015E4FBFA0BBB001C
:0F101A00010AEB64704A70F50DBD00010C80E413
:0110290022A4
:10104900E4FDFCC3ED9FEC9E50070DBD00010C8033
:01105900F2A4
:01105A002273
:10105B000000000000000000000000000000002263
:040CFE008E218F2292
:100D020078237C007D007BFF7A10793F7E007F0A8A
:100D1200120C2DAC21AD22E4120AA37B007AF679E3
:100D22001F78461208F87B007AF0797F7845120A1C
:100D320001E4FBFA797578C3120807120ADCAB07E3
:100D4200AA067C277D10120C658E238F247C277DBA
:100D520010120C53C3EB9FFFEA9EAB07FA7C037D94
:100D6200E8FE120C658E258F267C037DE8120C535B
:100D7200C3EB9FFBEA9EFA7C007D64AF03FE120C7C
:100D8200658E278F287C007D64120C53C3EB9FFB7A
:100D9200EA9EFA7D0AAF03FE120C658E298F2A7C29
:100DA200007D0A120C53C3EB9FFBEA9EF52B8B2CA2
:100DB200F52D852C2EE52690102A93750800F5094D
:100DC200E52893750A00F50BE52A93750C00F50DDD
:080DD200E52C93750E00F50FEE
:010DDA0022F6
:100F1100E4FBFAF51AF51BC292C2917F0AFE121088
:100F210049E51B25E0F51BE51A33F51A7F0A7E001A
:100F3100121049D291121049309008051BE51B701F
:100F410002051AC2910BBB00010AEB64104A70D171
:100F5100D292C291851A15851B16E51530E70875E1
:100F61001A00751BFE8024E51630E208751A00751B
:100F71001BFF8017531BF8531A7FE51BAE1A78032A
:0F0F8100CEC313CE13D8F9F51B8E1AAE1AAF1BC1
:010F9000223E
:10106B00758901758CF8758A30D2A9D2AFD28C22D2
:100DDB00AB07AA06C3EA648094805013901034E4E6
:100DEB0093750800F509C3E49BFBE49AFA801C7C1D
:100DFB00037DE8AF03AE02120CBA742A2FF582748E
:100E0B00103EF583E493750800F5097C037DE8AF8C
:100E1B0003AE02120CBA7E007F64CFCDCFCECCCE08
:100E2B00120CBA742A2FF58274103EF583E4937575
:100E3B000A00F50B7C007D64AF03AE02120CBA7E88
:100E4B00007F0ACFCDCFCECCCE120CBA74352FF596
:100E5B008274103EF583E493750C00F50DAE02AF72
:100E6B00037C007D0A120CBA742A2DF58274103C97
:0A0E7B00F583E493750E00F50F22D5
:100FDD0012106B90102AE4937E008E08F5098E0A8C
:100FED00F50B8E0CF50D8E0EF50F7FE87E031210AE
:0D0FFD000A120F118E1E8F1F120CFE80EDC8
:03000B00020F9150
:100F9100C0E0C0D0758CF8758A30758000D2A4D2BB
:100FA100A5D2A6D2A7E519B40105C2A4850980E599
:100FB10019B40205C2A5850B80E519B40305C2A6C3
:100FC100850D80E519B40405C2A7850F800519E5D3
:0C0FD10019B40503751901D0D0D0E0322E
:10080000020B48E86480F8E933E83360110460F0D3
:10081000ED33EC337009E8FCE9FDEAFEEBFF22045E
:1008200060DED3EB9FEA9EE99DE8C2E78CF0C2F759
:1008300095F0400CE8CCF8E9CDF9EACEFAEBCFFB25
:10084000120B1385D0F05804700320D5B3E8047060
:10085000075002B2D5020B5292D5EC0460F7E4CCFB
:10086000C0E0C398F8603B94186008400DD0E0FBEE
:10087000020B2AE4FBFAC9FC8028E830E406E4C94C
:10088000FBE4CAFCE830E305E4C9CACBFCE8540742
:100890006010F8C3E913F9EA13FAEB13FBEC13FC4D
:1008A000D8F130F52FC3E49CFCEF9BFFEE9AFEEDF0
:1008B00099FDD0E0FBEF4E4D4C701222DB03020B92
:1008C0004FEC2CFCEF33FFEE33FEED33FDED30E764
:1008D000EB020B2AEF2BFFEE3AFEED39FDD0E0FBE9
:1008E00050130BBB0003020B52ED13FDEE13FEEF92
:0808F00013FFEC13FC020B2ABC
:1008F800EC4D6011E8497017ED33EC3304600DE4FA
:10090800FCFFFEFD22E933E8330470F8020B4812BD
:100918000B1358046009E4CC2481500628500902BE
:100928000B52284003020B4FC0E0EB4A7044B980D9
:1009380006D0E0FB020B3EEF4E701CBD8008EBFFBB
:10094800EAFEE9FD80EBE98DF0A4FEE5F00209E19D
:10095800E9CDF9EAFEEBFFEF89F0A4FCE5F0CE89DA
:10096800F0A42EFFE435F0CD89F0A42DFEE435F097
:100978008067EF4E7005BD80D780C3EF8BF0A4ACC5
:10098800F0EE8BF0A42CFCE435F0F8EF8AF0A42C00
:10099800E5F038FCE433CB8DF0A42CFCE5F03BF813
:1009A800EE8AF0A42CFCE5F038F8E433CF89F0A403
:1009B8002CFCE5F038CF3400CE89F0A42FFFE5F009
:1009C8003EFEE433C98DF0A42EFEE5F039CD8AF061
:1009D800A42FFFE5F03EFEE43DFD33D0E0FB5007D9
:1009E8000BBB000F020B52EC2CFCEF33FFEE33FE77
:0609F800ED33FD020B2AA5
:1009FE00020B52EC5D046005E859047003020B48CB
:100A0E00120B13580460F6EC4860F2EC7004FDFE15
:100A1E00FF22C860DB2481C85009C39860025006CB
:100A2E00020B4F9850CAF582E9294B4A7005AB82EA
:100A3E00020B3E75F0007C1A7880C3EF9BEE9AEDA8
:100A4E0099400DC3EF9BFFEE9AFEED99FDE842F043
:100A5E00DC23ACF0D0E0FFD0E0FED0E0FDAB822096
:100A6E00E7101BEB60BAEC2CFCEF33FFEE33FEED20
:100A7E0033FD020B2AE803F830E705C0F075F000ED
:100A8E00EF2FFFEE33FEED33FD40B830E7C280AA04
:100A9E0075F020800E75F010800575F0087D007ED3
:100AAE00007F003392D530D503120CF0EC3340109A
:100ABE00EF33FFEE33FEED33FDEC33FCD5F0ED22DC
:0E0ACE00E5F0247EA2D513CC92E7CDCEFF2218
:100ADC00EDD2E7CD33EC3392D524814006E4FFFE12
:100AEC00FDFC22FCE4CFCECDCC24E0501174FF8071
:100AFC00EDC3CC13CCCD13CDCE13CECF13CF04700E
:070B0C00F030D5DE020CF011
:100B1300E9D2E7C933E833F892D5EDD2E7CD33EC28
:070B230033FC5002B2D522A1
:100B2A00EC30E7100FBF000C0EBE00080DBD00042C
:100B3A000BEB6014A2D5EB13FCED92E7FD2274FFD8
:100B4A00FCFDFEFF22E480F8A2D574FF13FC7D8031
:030B5A00E480EF45
:03000000020E8568
:0C0E8500787FE4F6D8FD75812E020ECCBB
:100B5D00E709F608DFFA8046E709F208DFFA803E7A
:100B6D0088828C83E709F0A3DFFA8032E309F60867
:100B7D00DFFA8078E309F208DFFA807088828C83CF
:100B8D00E309F0A3DFFA806489828A83E0A3F60883
:100B9D00DFFA805889828A83E0A3F208DFFA804C5D
:100BAD0080D280FA80C680D4806980F28033801034
:100BBD0080A680EA809A80A880DA80E280CA80339D
:100BCD0089828A83ECFAE493A3C8C582C8CCC58315
:100BDD00CCF0A3C8C582C8CCC583CCDFE9DEE780E5
:100BED000D89828A83E493A3F608DFF9ECFAA9F064
:100BFD00EDFB2289828A83ECFAE0A3C8C582C8CCBA
:100C0D00C583CCF0A3C8C582C8CCC583CCDFEADED2
:100C1D00E880DB89828A83E493A3F208DFF980CC34
:100C2D0088F0EF60010E4E60C388F0ED2402B4042D
:100C3D000050B9F582EB2402B4040050AF232345D4
:060C4D008223900BAD7341
:100C5300EF8DF0A4A8F0CF8CF0A428CE8DF0A42EB5
:020C6300FE226F
:100C6500BC000BBE0029EF8DF084FFADF022E4CC73
:100C7500F875F008EF2FFFEE33FEEC33FCEE9DEC3C
:100C8500984005FCEE9DFE0FD5F0E9E4CEFD22ED82
:100C9500F8F5F0EE8420D21CFEADF075F008EF2FCC
:100CA500FFED33FD4007985006D5F0F222C398FDBD
:050CB5000FD5F0EA225A
:100CBA00C2D5EC30E709B2D5E4C39DFDE49CFCEE55
:100CCA0030E715B2D5E4C39FFFE49EFE120C65C35C
:100CDA00E49DFDE49CFC8003120C6530D507C3E457
:060CEA009FFFE49EFE22C4
:0E0CF000C3E49FFFE49EFEE49DFDE49CFC2215
:100E9100020FDDE493A3F8E493A34003F68001F28B
:100EA10008DFF48029E493A3F85407240CC8C33362
:100EB100C4540F4420C8834004F456800146F6DF31
:100EC100E4800B010204081020408090107BE47E36
:100ED100019360BCA3FF543F30E509541FFEE49326
:100EE100A360010ECF54C025E060A840B8E493A3ED
:100EF100FAE493A3F8E493A3C8C582C8CAC583CA18
:100F0100F0A3C8C582C8CAC583CADFE9DEE780BECF
:011089000066
:00000001FF
